:020000040000FA
:080000000EEC00F02AEF02F003
:040008004BEF02F0C8
:02000C000000F2
:080018004BEF02F0086A0F0132
:100020000F0E876E0C6B826A82880B6F8A6A856AF4
:100030001B6A0A6A026A03680D6A0E6A1E6AFD0E6E
:100040001F6E600E206E0E01170EB06F090EF86F56
:100050000F01896A898E899C1C6B220E9A6E9B6A9D
:100060009E6A9E8698509C8E9C889D9C9D8A9D9899
:100070009D940E01130EB26F090E8A6F140EB36FAA
:100080000A0E8B6F0F0EF56F120EEC6F100EF66FDF
:10009000110EEB6F0F01FF0E896E886E1C6B146BD7
:1000A000180E186F196B060E106F116BDFEC00F055
:1000B00005EC01F0959A92CEE8FFE89AE8CF92FE1F
:1000C00036EC01F036EC01F0ACEC00F0C9EC00F0DD
:1000D000968092CEE8FFE880E8CF92FEA1EC00F097
:1000E0009684A1EC00F0B9EC00F092CEE8FFE88431
:1000F000E8CF92FEB9EC00F00E01B89BC09BC59B07
:10010000BD9B900ED46E400ED56EF29AF28CF28E9C
:1001100012000001116A126A136A12000001112A0A
:1001200001E01200122A01E01200132A1200000E50
:10013000096E01EE00F0000EEE24092E9CEF00F097
:10014000120096501F0BD8A4FCD794B4FAD7120013
:1001500094A0A8EF00F01200280E956E200E926E6B
:100160001200916E95AE000C959EFF0C96BCFF0C94
:10017000000C92CEE8FF1F0BD8A4FBD790CEE8FF6F
:10018000E8B4F7D7120090CEE8FFE8A0C3EF00F084
:100190001200280EE8CF91FE200EE8CF8EFE12004E
:1001A000E8CF8DFE91CEE8FFE8AE000CE89EE8CFE8
:1001B00091FEFF0C92CEE8FFE8BCFF0C000C848897
:1001C0008486899889962BEC01F084982BEC01F0B9
:1001D00084962BEC01F02BEC01F08488090E2BECBB
:1001E00001F084862BEC01F08496E82EF8D72BECF6
:1001F00001F02BEC01F084982BEC01F084862BECC1
:1002000001F0848889888986120083848382889497
:1002100088922BEC01F083942BEC01F083922BEC71
:1002200001F02BEC01F08384090E2BEC01F08382AA
:100230002BEC01F08392E82EF8D72BEC01F02BEC9D
:1002400001F083942BEC01F083822BEC01F083848A
:100250008884888212000000000000000000120064
:10026000040E37EF01F0150E37EF01F0D20E066ADB
:10027000076E062E39EF01F0072E39EF01F012005C
:10028000D8907936D8A412007A2AD8A412007B2AF2
:100290001200000E7B6E060E7A6E000E796E120052
:1002A000E0CF19F08298828A036AB9EC00F092CE0E
:1002B000E8FFE880E8CF92FEB9EC00F0980ED0ECB1
:1002C00000F0B9EC00F0100ED0EC00F0B9EC00F04A
:1002D0000E011FC0D3FF20C0D2FFBD8B19C0E0FFAD
:1002E0001200E0CF19F01E6A8288829A0E01BD9B2F
:1002F000B9EC00F092CEE8FFE884E8CF92FEB9ECCA
:1003000000F092CEE8FFE880E8CF92FEB9EC00F072
:10031000980ED0EC00F0B9EC00F0100ED0EC00F02C
:10032000B9EC00F0800ED0EC00F0B9EC00F0000E5B
:10033000D0EC00F0B9EC00F092CEE8FFE884E8CF12
:1003400092FE19C0E0FF1200F2CF21F0F29E7F8EE4
:10035000BB0E816E440E816E8082CC0E816E330E98
:10036000816E808C7BCFF8FF7ACFF7FF79CFF6FFD5
:1003700001EE00F0000E226EEECFE8FFE9B0800A39
:10038000F56E22C0E8FF0D00E82EBBEF01F0DD0E98
:10039000816E220E816E808A7F9E21BEF28E7A2A25
:1003A000D8A412007B2A1200086A03680E01BDBBA4
:1003B000D7EF01F049EC01F09850C08B01EE00F04E
:1003C0008298829A828E0852D8B4E3EF01F00852E4
:1003D000D8A4E7EF01F097EC00F01C6E00C11DF00F
:1003E0009DA2F0EF01F0430E996E0852D8B4F5EFDC
:1003F00001F01C5001EE00F0EF621EEF02F01DC094
:1004000000F1A4EC01F0086A7BCFE8FF010AD8A450
:1004100010EF02F07ACFE8FFFA0AD8B417EF02F033
:100420009DA210EF02F04E0E996EE3EF01F09DA237
:1004300017EF02F0580E996E26EF02F0086A9DA29F
:100440001FEF02F0520E996EE3EF01F0C09B829E07
:10045000828812008CA2D4EC01F08CA435EF02F05B
:100460008CA647EF02F02AEF02F01E52D8A42AEF22
:1004700002F01E2A50EC01F0000EE8CFF8FF060E45
:10048000E8CFF7FF000EE8CFF6FF2AEF02F0829ADE
:1004900003682AEF02F0D8CF14F0E8CF15F0E0CFD0
:1004A00018F0EACF16F0E9CF17F0851E0E01BDABAC
:1004B0007EEF02F0C5AB7EEF02F0C59B1FC0D3FFFD
:1004C00020C0D2FF0900F5CFE8FFD0EC00F0021EFB
:1004D000D8A472EF02F01E52D8A41E2A0352D8A448
:1004E0007CEF02F0F8CFE8FF010AD8A47EEF02F01B
:1004F000F7CFE8FFFA0AD8B471EC01F0C8AB89EF86
:1005000002F0010EEA6E08C0E9FF000198CFEFFF8C
:10051000082A15C0E8FF18C0E0FF16C0EAFF17C0A0
:08052000E9FF14C0D8FF100030
:10060000FE7F0C00030003000500EF7FFC7F00006D
:10061000FB7F1500260038001900F27F0A000E004B
:1006200001000F000200F47F1C0037001F000700CC
:1006300016002E0023001D0033004C00470021004F
:1006400030004F0037002F0027001B000D00D17F26
:10065000C87FDA7FC17FAA7F927F7C7F747F817F92
:10066000707F4C7F5D7F5F7F2A7F1E7F2D7F147F91
:10067000FE7EFF7EFE7EEE7EF77EFB7ECE7ED17E10
:10068000F07ED07EA67E867E7A7E797E6C7E5A7ED5
:10069000437E2B7E0B7EEF7DDA7DB97D807D767D7E
:1006A000837D4F7D5F7D8A7D627D5B7D537D2C7D6B
:1006B000397D487D577D727D867D9B7DAF7DDC7D5C
:1006C000F57DFC7D297E5B7E5E7E6E7E877E817EF3
:1006D000B47EE47EFB7E227F187F207F387F357FCB
:1006E000447F3E7F337F3C7F407F4D7F5B7F4F7FEA
:1006F0004D7F557F647F6A7F4E7F537F717F797F07
:10070000937FA57F9D7F9A7FA07FC17FDE7FDA7F69
:10071000EF7F150034003B00400050006E008A005F
:10072000650063007200440040003E0021001F008D
:100730001700FD7F030015001B0032003F00190069
:1007400015002200FE7F18004700400061007E0077
:1007500056004E0074008300850091009600A500AD
:10076000BB00BE009E007B009C00AE0079007100C3
:10077000980076005E0069005A008600A7008B0092
:10078000A300A1006A008600A20085008D00B600CB
:10079000D700F8000201FC0005011C012001140132
:1007A0002C01450150016901860185017D01790116
:1007B00056015D01880196019001A001B001A701D9
:1007C000B601BD01CD01D2019A01C101DE01B00126
:1007D000EC010402E501D201BB01B801A601AA01A6
:1007E000B401A2017E0182018F014B012D012C0178
:1007F0000D011701FF00F5001201F700F400F800E9
:10080000B400A900DA00B2008D00BA00AA00AE0060
:10081000D600B400D7000501F400F800F600F90096
:10082000F000DE00FC00140115010E01F300D00001
:10083000CF00E100D500DF00EB00DC000701230161
:100840001F0132012F014B017301820189018D01CA
:100850009A01B701E601DC01C701E101E801CF011E
:10086000D401F001EB01D001E101D501A501B001F6
:100870008D018D01B0019301BF01B2018801B10169
:1008800078016E01970170018601730153018201A5
:1008900081015801390139012F010C010E0121019B
:1008A000100114012501E100C500F900F300EF007B
:1008B0000D010F0107010301090110010A013101B6
:1008C0005B0150017801A4017D018201A401B10105
:1008D000A50182017D01770164015A015C0150018B
:1008E0003501320128011E012B0132012B012601A5
:1008F00021011801210138014901560173017201DA
:10090000600185019801870188019001A801C70154
:10091000CC01CC01CF01BB0196019C018D01850169
:10092000B60199018E0198015B0142013C010E0163
:1009300005011A0118010A01FB00E600E700FD00AD
:10094000F800F30007010801090130014A01240100
:100950001B013701190117013B010D01E000F200F5
:10096000DF00C200CD00D200A8007C007E007C0029
:100970005A003E0038002600EA7FD07FDC7FA87F47
:10098000677F5C7F6C7F787F527F227F1B7F037F36
:10099000D47ED17ED47EB07EAD7E9D7E7E7EB87EBE
:1009A000C57E837E877E977E937E947E977EAE7E85
:1009B000BB7EDA7EE67EE27EE27EDF7EF57E127F21
:1009C000107F007F1B7F117FFC7E197F137F127FBA
:1009D0000A7FD97ED67EC47EB77EDC7EDE7EE97E4F
:1009E000F47EEF7EEF7EEE7EFE7E0B7F1D7F397FF5
:1009F000377F4E7F837F737F567F6C7F817F927FAF
:100A0000A37F977F887F8F7F817F617F4F7F2E7F3E
:100A1000ED7ED27EC77E8F7E6C7E767E6A7E4A7E3B
:100A2000287E117E047EDC7DB77DB27DB17D9B7D0D
:100A30007B7D887D987D7A7D677D5B7D667D727D1F
:100A4000507D237D117D217DF77CC87CDF7CE47C9B
:100A5000B77C957CA77C877C5D7C707C567C227CF7
:100A60000B7CFD7BF47BE97BE47BD87BE37B167C12
:100A7000EB7BCB7B0A7CEF7BE57B1E7C1E7C317C99
:100A8000607C767C837CA57CCA7CC97CBA7CE47C57
:100A9000047DF57C1F7D5B7D4A7D697DA57D907D14
:100AA000AC7DD77DD07DF47D2C7E347E237E2C7E64
:100AB0002C7E257E447E387E1A7E2B7E217E237EF0
:100AC0004B7E4F7E337E227E147E1D7E2F7E077EE0
:100AD000E67DEF7DE77DDC7DC27DC87DE47DB37D75
:100AE0009F7DB37D8F7D797D847DA17DAF7D8A7D66
:100AF0006D7D7B7D6E7D647D6E7D5E7D617D517DD6
:100B00003F7D437D457D467D3A7D4F7D447D3D7DE6
:100B1000677D537D417D507D3E7D507D7A7D7D7D1D
:100B2000637D727D9B7D977D907D9B7D987DA57D6E
:100B3000AD7DA97DAC7DA37DB17DBC7DA97DB97D59
:100B4000F67DFB7DDD7D097E1E7E087E157E2F7E77
:100B5000437E657E827E957ECA7EC87EA37EBA7EF7
:100B6000ED7E157F297F347F3D7F427F437F387F35
:100B7000207F1C7F297F257F307F3E7F4C7F4C7FED
:100B80002B7F217F217F187FFA7E0A7F287FFA7EC4
:100B9000FC7E197F047F087FFB7EDD7EDC7EEE7E9F
:100BA000037FF17EF47E067FF27EF87E107F247F45
:100BB000247F337F437F007FE97EEE7ED87E107FE7
:100BC000347F287F3C7F367F127FF57E077F1C7F36
:100BD000E87EE47E0A7F097F007FD07EB77ECF7EED
:100BE000C97EB97EB67E9C7E917EA07E907E8C7EF4
:100BF000977E9D7EB27EB47EAD7EB47EBF7EB27E99
:100C0000AA7EBC7ED97EE67EE17E097F137F037FCC
:100C1000147F1A7F2C7F377F457F4B7F2F7F577F35
:100C20008B7F757F827F9C7F887F917FB57FC37F1D
:100C3000BA7FC57FED7FF47FE17FDF7FF77FFD7FA8
:100C400000002E002D001A005700590029003F0017
:100C500040002700330034001300F37FDE7FB97FAC
:100C6000B67FCF7FAD7FAB7FD27FAF7FAE7FDA7FA6
:100C7000B87FB37FDE7FC57FCE7F0100D47FCC7F7E
:100C80001B0024003C005E00400050007200800009
:100C9000AD00AC00AE00E000DF00CB00D200CC0025
:100CA000CF00D600BD00B200A20084008B00660019
:100CB00036004B005E0077009500B000C700C00012
:100CC000D500E700EA00180131015101F7013C03AA
:100CD0002A05F606F9067304787F78797A756875BF
:100CE000AD79C0000308670DB50ECD0BE106930189
:100CF000237D727B017D6200F1030607E20825086F
:100D00003A0538017D7DA37C0F00E105380A240AED
:100D100087045C7B6E730771CD752500970C7D167B
:100D20008C190E15760C7F03767C6A78B9761E775F
:100D3000367A1A001F07470B690ACA05037F4079F4
:100D40004E77F97671790E7E6900BA045906E2038E
:100D5000B3038901FD0439083A030C098E10841588
:100D6000B51B660C10797F6EAE65F472820B271D81
:100D70005A214D0CA673A26B9D73AE071913D6139F
:100D8000050D82746C5D2455295A176933730B7EE7
:100D90006A115720B422D7173E09727F6172FD6431
:100DA00067657F7FA61DB326FA1E1200566E9678E1
:100DB000377FA611DC26BD276B189F7B8962ED5E0D
:100DC000AA687374F77DB406BD0FD312DF1E3A2CE8
:100DD000B41EA87FD15E114A534E536445040320CC
:100DE0001C1F31075D701F662B6C2C7D350CFE13AC
:100DF000EF13D20A767E2A77A177B77DDD01C17F16
:100E000070049F15DF223024A11C6108AA674B5390
:100E10002C590472F010BB1B051A2013B07D9D6E77
:100E20005871827EEC0B260F560A0E055A02F67F89
:100E3000657B1A6F785D5056A460B57D23283047D6
:100E40004541CA18EF6746474B3F70501D772F1E2C
:100E50008531AA2F59220A155A0B37077507A601A3
:100E6000887A717699798F0AA014440BA1748F5EE9
:100E7000B05C2473D614B534C042312DFE7E194FB8
:100E8000B4326E3BB25B3C7D4619AF273624B01BB3
:100E90002017C71186035D6B6D5D59651177700A68
:100EA0003A15E90D9D79E362945B1C6D6511473934
:100EB000E94AF53BE516066A3D4A3B451058D878A5
:100EC000C80CD810711BEF268929F919FB79C55B6D
:100ED000E447F6470B63040BB2223B1C0A00706226
:100EE0003D553A5E0C01912EE9459E3A7316106D00
:100EF000AF52114C8B53C05DEB67EF7B21154B2834
:100F0000DB3383311817B06CD34A5E45ED5B390093
:100F1000FA22283322265504806767612B72180B4A
:100F20009B1B8C20DC13867F1C6E6B5B76529E5065
:100F3000F553AE662F04A62746411E3E1B22047AB7
:100F40005F52593D604A4C74FB1CCE291D1B377FF4
:100F50004167BF5E5A67307E87114013870F4C0C84
:100F600055058A79E168155CC857A360EA7DD126EA
:100F7000B14AFD570E3FDE06F34D1C32D43C5A5E9B
:100F8000D4039C1B44182F04E370826B3871917753
:100F9000997E5805B60A920AAA078308B27F0F679E
:100FA000484FD847E85DCA0C793A4D53A6451A1305
:100FB0004C5B5338143638521A779F12141DA519FA
:100FC000E4101803F57BBD01CD040100CF7DD206EE
:100FD0002014101546069E6B3F4A43392F4AEC7881
:100FE000282EC147E03EAC1BE96A7846CD3937452B
:100FF000DB63A6037918EC214F23F920FB181209B3
:10100000EF74E166BE67EB78FB136C243B1A0E7439
:10101000EC46C936054BD8722924CC4BDB526139DA
:10102000410D65668551B94B7B55B3670E7CD90F71
:10103000D721F62F742B89106F6B104AB642A25E2F
:101040001E07F921D6219B06A15F7E41DF42CD66B6
:10105000FA15803A6D45F735051ACF7954624E5B23
:101060002658EF54B05A1F72E8182D3AF340AB2BB4
:101070007C029058AC4735564879CE1D1B30092468
:101080009A01FA6041541861A77E381F1E32B42BB2
:101090007E1864081A78955FED45DE3A4844F4609E
:1010A000260E3137A246FA39D513D968B75179538C
:1010B000CB6DFB10EB234D203C08E76ADF5EC76574
:1010C0005F78FF09F413231DAD2432239B1396761A
:1010D000EC5302394935BA536B0AD53DDF58625299
:1010E0009D2CE076894E794B77663904B3131F0F38
:1010F000727BC16B9768AE6DCF75ED7BBE012D0C19
:101100001419EF241E26680F01689C43FC323142FB
:10111000EF70D42D845CCC5E0235B67FD757684D16
:10112000B95B7D714905AE09EA025E7FB27E967FAA
:10113000C17F757FF503670BB817A227B02BDB1DA6
:10114000537BCD4A6029DE2E725D7C1CE24804523E
:10115000123B2C0FDB631550A9524E5D2C6C927C18
:10116000840BF416FE1A581A7014F8059576F37469
:101170004706102366390730CD05B852C22D552BCE
:1011800049507E09B639384E0B4539287B08EC6B3F
:10119000FE578C56A35FBD6AB479540CBF21D52A83
:1011A0008D1C4D013F65855BD26DA5102B3019312B
:1011B0000F0EC15DD037EF2F004A6079B72A4E4A33
:1011C0001851823E111CB37FFD6D015D6E4F5D4F66
:1011D000D4615903B225B8388D31BC0EC165A25413
:1011E000E36378044721C1298C174A74E34E7B3AA4
:1011F0001747006D7C17BA34DC3A5B3340269F10EA
:101200008178125D8E41F8373246846C401DC439B6
:1012100062367A1B567AF962225F9B75E916702A4C
:1012200017242506DF66C8532B51AD64D4009816E9
:101230005F26F52F25314E27FB0A5C6013391F28E6
:101240002738D8627715853DCC4A64324F05506205
:10125000635A656C3608DD1B761B6707B46B9E5AB4
:101260002A5D5D67646FB27A810DF722BF33AE37B6
:101270004A2662006752DB2F862D2D4F4606A73B7C
:10128000C3518A40D218346F8B59535FD274AA0568
:10129000CF03397AA374E66E5B6A5C69F66C8B7473
:1012A0009B7F0815372F213E0A3638123A5F1233DA
:1012B00070212139B16F3E26C044AE3F0420B97D74
:1012C0000567385E3160DC66F06F2579A07EF60236
:1012D0003B066302E8767D6B456EA503CD21D83BC6
:1012E00021427325966B1F36EF200633DF613C13D6
:1012F0001934833C3D2DE814BE7E3C6FD1670964F0
:101300002564686B917A460E191A1117AC06A86C01
:101310003E5C23685C0C9E34E342E02ABE7A5C4665
:101320007B27FA2B3D4FB701C229203C6C3B782B21
:101330008E157900E16E3562C859445CA66EDD0AEF
:10134000CB2442288B0E3A6B3956C55C707B482102
:1013500095393332C00A315B7C3D103A214E4C74D2
:10136000C31CCC35F33A9B314C24DC124377B45880
:101370004A420F41335C48046924B42EED1A667763
:10138000F05C8059467281178F306533E61D027814
:10139000485445441B4F5E696203DB175428DF3510
:1013A000F93536226D01E6573D357730DE4CC97C84
:1013B00010289139772EF30ED56DBC60EB6C110AB5
:1013C0001627C22FB61C727B8161BD56EA56226079
:1013D00087709603BD185C30CE402B3A0617DD644B
:1013E000C13C53308E43E370A323EC42E441FF221F
:1013F0006F7C55669A660E79E50D2A14FE0C457DC4
:10140000F86D8667486348609761D46ABA067D2C98
:101410000A467A48112F4C7F4A4B602B72335C5E30
:101420006D12A9370A41962D6C0AEF6FD769276FA5
:101430004476BF79BB79577CD9006601027BC16EC7
:1014400063655368AC7BFC1D15422451723CC10A94
:10145000BD51902A91272148437ACE25FB35CF2BC9
:10146000411A910ABB7DE772D66ABD6B38724F7B19
:10147000E10ACF16CF137802766B9C5FFA681709E2
:10148000BA346F4E81456D1A7E5C462FAA275642AC
:101490002A6E5B13CF2B4F36A12EA92090133A034F
:1014A0000272C46466636C725509571DE423B2135B
:1014B00053737B57DC541A739F22424581466C2735
:1014C000BF76D34A0137BD3F345EEB030A22213495
:1014D000823B3C38DA29A3100573205AC84D615766
:1014E0004A77771C482C0A1C857B815E5E56846C8B
:1014F000C7131B376943F030BD0C8465EE4AE647DD
:101500004A55226D720A1524DC361040663C4C2583
:101510003F785D4A113530410B6870135B2E2D2DDD
:10152000AE10206FA760C26CE40AA0284B38E332EB
:10153000A0176B74D05AE851FB55A75FB06F9A089B
:101540001C27CC42E44B8637060A8E56B435B33599
:10155000F157B40AF72EBB36AE26450A2972C46B82
:10156000587C7517E0265623A712757E656C3E5D84
:10157000D453A0508B58B573C91BFE43675AEF4B29
:10158000F81D87659E3A91317249B9751123B638B5
:101590002F30DD15DE7B17722C770500A2075B0B61
:1015A000360A2F064F01DA780067BC526A4EB963DB
:1015B000BD0C183A6A596759DC33CA781544022CB5
:1015C0004139EC61C20D9926BB28AC1C280C5F0088
:1015D000497B6D7996769274FE7C550C8C13E40DE4
:1015E000D87B3F631153F9564276F528CE52855C7D
:1015F0003D3F4607D74E1C2D232F974ED675DD1342
:10160000D722FB2620259C1CB10E6E7D146E436BE9
:10161000BA758007FF1A09237414F0724053D34C33
:10162000D264D3116341B658A54663151F61E63EE7
:1016300020369945916281016E1C142F223826357F
:10164000E3230E09546B0857045ACC71E30F7D2233
:10165000241C987E885956468455F67EF92C2547D9
:1016600077427D266A7E9B59F84581464357CA6E6C
:10167000060AB428D13E2D44AC36A01471692E4818
:10168000DE412C5BFB01D21E8621A6077665C75280
:1016900080598C76681CB039633FF22B9D0D4C70DD
:1016A0004658C64AD44A1657626E820FF233734CBC
:1016B000FC479623D16EB242B435624B82737819DF
:1016C000102A851D7701CB69476467744E0F1D276B
:1016D000E631A42A2617957FAF68C6568D487C420E
:1016E000B6527C7AB02B3F507D55BB390D06635105
:1016F000F43819449466F10C49242025B712AD7BC7
:10170000617015749B021412C1178815C511510B15
:10171000BB7C15647C491A3B154417683E1E714F0B
:1017200026621C4DE61BA865F240DC397250387603
:10173000E913121CF9127406C77E707A1479807A44
:10174000DC7B5D013D0D58163012687BC659093FA0
:10175000423B3859280FDC42E060D45A312FC07226
:10176000334239336F42545C3977580BE012AC1373
:101770000012BC0C95010F73B56C1A755408EC1B64
:10178000AA212B126B71414D723A86488B75622DDE
:101790004554B75630350102A6542E3CAF3A574A4D
:1017A0003261CD77870EDB239D2EE3271012B377AE
:1017B000E864EB6032704E0DF921C11C997EE25451
:1017C00005387A3B765F13140D3EDC4AE439A014E9
:1017D000846ECC536244C742EE4F346A780BEF28D4
:1017E000073D9A3ED626C57FE75A464B4059EF78CB
:1017F000D216141FB908F761F242AA3EF8580D023A
:101800008E26E43A57397625AD08F1690F50C74066
:10181000713F1B4F346FFE18AD3DE94924359C09DB
:101820006B5B8040204704696A0D5D1C5D11BC77CD
:10183000225E8F53475F357A7A17B92B4431BA2924
:10184000F916177D9360B1420C2F63323C4E607FD6
:101850005633204F2F45E61897634242EB3E0B5715
:10186000D3795F12A717B508B77157643166D07383
:101870008305B7147A1E1C20ED1A740EDB745150C8
:101880006F2F0E25B93CF470842C09545E55D73364
:10189000B00257573743B54C5B67897F0A0BA008E6
:1018A000557D0E72536DAA6F5273C276CC7F140FA2
:1018B0003A1DEC1D8607805FAE3677214F306F6092
:1018C000C01D7B4DEA5955426F1415648C46B142D8
:1018D000F5512267B575DF7DD3026E05D006610034
:1018E00074723B6B49725106F71EA42C4722F07CA0
:1018F000994C8D2C1A2D1C4F7D06003BE1537047EF
:10190000D41FD671055017427444034F995D0E7170
:101910001807AA17041C6211DD7BAF68A164257546
:10192000E7115F272427530CC95FD2370B29E43E08
:101930007F71D9244F4271431A2DBA0C356D305541
:101940005348DC44694E7468250AE5261633CC27D3
:10195000A70A0F6BA75A0A62B87B43199E25C812C3
:10196000F2685E3F142DFF3A8C60390DEA2E393B48
:101970003235D2227508BD6A9D4E993C723DB553F1
:10198000BE790522743B3839051B23719253995156
:10199000186A400C6220D618717B245AC346A34AA9
:1019A00031622302511F2833693B05350D1FCE7E5E
:1019B0005D5A56395529BA36F15F8B131D3B3F44AA
:1019C000FA29B67C8157454D0E5F727DE714741875
:1019D0005108D071E6604B5B1F649B77340E832106
:1019E0007A2EB634782EF1150E6EF9418024F12648
:1019F0004F4DB3088B3C2151C140CA18C670205BC3
:101A0000EA5C096FB803600E220B037FE470416744
:101A10004766BA6B0475C6035C18572D1936042740
:101A20004500384DE2248620DD43D27CD032B450CC
:101A3000E44D8D2F3B070D6AB45E7E61966D37795C
:101A4000B87E62004500FB7EB879E06F1D69B36E19
:101A5000D10542270A40753E481CE566E03723253C
:101A60003D38DF6891205C47384FD4398916FD75C1
:101A70000561DC59155C3061AD698178250ACA14AD
:101A8000E90FDB7E266DD36796794F1C9C3BB544EE
:101A9000752EC07F4A4C0F2C16309F543E0798334A
:101AA000AA47204071284F0CCF73EA5F4D51215057
:101AB000505ED277691550278424AE0FAE73AE64A2
:101AC0006C6DC70857297D3AE12E6408F755A63199
:101AD000EC2CE445896F5D1811334D3CFF37E72846
:101AE000A80EB96DA1506442104AD3678610872FA3
:101AF000BC35A022B5011D65015EF7728D16F72F6A
:101B00002C2FF612BC689C46733B71481565DB05AB
:101B1000C223C93910431A3D5C255F7E9C5491371E
:101B20002434C14D7C799E24393A3D2F370DD96933
:101B3000A85AFC665103E01DFA269D19317F2C65D9
:101B4000C956F456EE6131776513762EE04274493A
:101B50000C3A5614C5623B38B927523A0A69451DFA
:101B60006E3C653A311FCD7CCC66BF671279FF0CA5
:101B70003818D71545090578CB67495E815C2A631B
:101B80000F75A910EC2FFC466446BA27E772743D26
:101B9000A621CD2C5A5939113D394044C534161867
:101BA000457F4F733575BD7E8E07420C8E0A41040A
:101BB000837CF8703463845A575FF9776B1EFF4259
:101BC0004D52853C8408A64FC62ACF29154B087D67
:101BD000CB295D407C3D5F29780F0D7B0A71056E36
:101BE0005D6E8272E17A0C05F20A2406BB7589618A
:101BF000C459926B6613343F39582F4EF623DE6B6F
:101C0000D63C072CB13ED067E5148F345D3E5D3580
:101C100081215D0C81791168225D9C5E126E440603
:101C2000B819991C0C0B696F345F92663204C52C8D
:101C3000B74AF34BB82CAF79654AA430DE33515123
:101C4000FA78561B5532E53BEE3853292B0D696C5B
:101C500077533F4EDE6177042B237B2ECF209902F2
:101C6000EB665C5F9672B017DD395F450B32AA08F0
:101C7000AA5C233F5E3A934BCA66C905BC24153D56
:101C80000E482A3F56222C79215288407B4CBE6D4B
:101C90003E145E2CD029FF0F826E985B43649A013C
:101CA0005F23BC3637302816C275B55AD44C344D34
:101CB000715B8375F216BB393D5167518237C60996
:101CC0002859F43911395056C00171246B2D771BF6
:101CD000417E82695868BA79121205238B25391B17
:101CE000C3084073D45E3F50D44D585B4279BB214A
:101CF0009345BE5499450619A95F86332C29224382
:101D0000C9702C1B3130A42ADC157002AF79FD7C20
:101D1000CD07D1124319FF1808129F043471915C4A
:101D2000A94D394CA95F3007D435905578537E2D95
:101D30009F7302405B296936965C330731244A2D34
:101D400013269616D906297CBA78947A6B7E3E04BF
:101D5000EB0A080CF6019E6DC25560477D51A377D2
:101D6000FE2BFE551060BC440C10A259DA380F3718
:101D70002A4F027436160B2B2A2FDA26BE18690753
:101D8000CB75286979651D6EB300FF11D315480521
:101D9000CF66174E234D1B6A631A0E47295BA04C72
:101DA00080214D6D774480342B3F985B797DB0194D
:101DB000092C1F34042FD71C6E02EA67875945602F
:101DC000FB79B4178F255A1A4B7DD45E2151C85F19
:101DD000F0058D30264BEC488F2A7D7DEA53AD3CD3
:101DE0002D3BD9495A636C0275212E3AAB4204341B
:101DF0003F12576B935162515A69EB0A5C22B12230
:101E0000EB0B2D6B47551C582873F819CF38E3405E
:101E100010304A0FC16D7054474528443253EE705C
:101E2000E6182A3FE653E24B7A2858792252CF42ED
:101E30004151B3727212F31E7913E378FF5F905928
:101E40002C6A47078C21BD2EB12CFE1D8E06656BBA
:101E50007E523142CC42585A09041132A752B85529
:101E60005A389D06D6547D39E43FB95F1B05731C73
:101E7000921CEA0B5A79D57029765404BF13F11FCE
:101E8000E72561238117A5012F644948AB3AD54462
:101E9000C7679E19A5463F597E46E115085FC53ABA
:101EA0001536264E87719C0DFF19A7179F0DD40379
:101EB000597E397D06000D076B106E18A519160E98
:101EC00008759B54443AF2364653A007C23D755CF0
:101ED0005B56712FB77A8650AD3F83480E61BD7C4B
:101EE000BE12DB1DDD1D9016B60A237D4D72016FFB
:101EF000A8767706BD153E198F07A3648642F7348E
:101F000002483A77632E0955C959D53D33113565D5
:101F1000B24848429C4E1B66AA7F0A156D23C9270A
:101F20001F20770D387647668F67EE7ABF1520261B
:101F3000D71E3900D2596D425248A46A0A1B8F43FA
:101F40005453004611226376E1528A3FFA3DF54B25
:101F50006D64DB029D20A2335734C5201A0016643D
:101F6000F25C8B6DF70AA322F124D50E2A6C575030
:101F7000714AFE5EE705312DFA43A142B92C620C8D
:101F8000C06A6C4FEA3F663FC9504E73211E38410C
:101F9000844B83374310ED68E05389591F737E0FDC
:101FA000891CDF1107763C59C14B725509723514F3
:101FB000652DFA35F42E641CEB01AB630648C53879
:101FC0008D401E624112A13D8A52DD473D22DB73E6
:101FD000E252634CA05EFF7B291208154305756E23
:101FE00030603662B8717707061C322B7832E92DE3
:101FF000781A6179CE52C935D430AE492479462C4D
:10200000414DD74D792E1D7F485613455C4FB96918
:1020100077022F0E520C8F03717A62756F76977C60
:1020200091076C17212810311B29AB0D5B65483EC9
:102030007A2AF8363662BC1A484883579A42911673
:10204000406B3252E14F645EE8721A04750D650F01
:102050001C0C9A04937A82723F72CE7C5A0F98219C
:10206000DA27A0184D742E488C290A2BE24F52080B
:10207000ED3B0156F74EFF2ED20619662E550F5432
:10208000745E756F9F0212133B1B5018730BD5794A
:10209000AD6CB46C0C7EAD19B72D7C2AAC0C2B60EA
:1020A000ED3A243190491479732A6B4A9E4F3B3C98
:1020B000CB19B97455572A4734465D53E86A8F06E1
:1020C000221E5928221F2B07786E14643D70220DA2
:1020D000CB282B312E1E657748511A3F874805695A
:1020E0006413BC371D495443AA2B020B6B69FF4D87
:1020F0000A3FD8419B58B87DA823323AFA36801C53
:10210000D6791563D964FD7BD017B0253B1DB80186
:10211000425FE846CF4443599C7A051C7D33FC3B23
:10212000B734C61FA300345D2C4046364A47C76FFC
:102130001A208A42CA471630AF0927695C5DAB682E
:102140005A015F16531AD20A7D709D59C2508458A5
:10215000906DEC08E8222036763E8336961AC86FDA
:102160009645592E7B358159DC0BE436AE47243930
:1021700046163C71305B315C9E6D0102320E900C54
:10218000610043722B699D670B6D317A2610032B1A
:102190006F406C442730CA059653C32E9927E342FB
:1021A00093752A286945484449294C043B68455F92
:1021B00077662474BD7FF605B5077005577F717685
:1021C0002B6E966DB1794E11872C453D5836BB1458
:1021D000F062C63526228331955E5A16CE3F114CE9
:1021E000453DB21F9101A86C9563E964E36D427BA4
:1021F000A7082511C210BE05D6747D68356A347DE6
:10220000191B34354D3BF9243E782248B22B093155
:10221000A6546E05F02FC246E1454D327F15FC777E
:102220001D6086527D52D060FA77F00DDB192816BA
:10223000BD039B6DF2625C6D1D0B462D313FF93382
:10224000E10E1361B23FD938E34DA974D21C1039A5
:102250003A44643DE0266607D166324D6642B04A94
:10226000A0640507E22104284C176E7A5D647A6346
:102270003579A9195D314A31881727700D4D583BC2
:102280008940AB59A47CC81EDD36B43E3C35451CA4
:102290008F78BD53DD3BDD3CE0578D01E4261237DE
:1022A000382C930E8A711B662770A407E51DDE2566
:1022B000CD19077EFA5ECB485043B44F5168D9061A
:1022C00086257A3C3A43F533EE0F0E62F83BF02E4A
:1022D0001A42646CB11893326C31BD1AE87CC6673F
:1022E000ED64F5726307BD148E13E8056372B36085
:1022F000E356165775625A79E818DA39BB4E814AA7
:10230000F929B1767145142C7A344C588306222B66
:1023100058370B2AE00EC275CB69336C72776F03A6
:1023200098099508470264780F6C4D60D45B60662D
:102330003E022C27A644454B0C346E04094F852AD7
:102340003326D342C071FA1D113778374825610D05
:10235000997A4771AA704975097DED064B0E990C63
:10236000FF7F8F6D2D5E005C126E81108434E34719
:10237000A23D19179D636D3811284738AA5F260CB6
:10238000C42CA1398B342F24830EFC778E662860F1
:10239000256658758D070813130F397CE764BB5702
:1023A0006960E47E7E2672442048EB2CFC7DD4508C
:1023B000D238B43CC256187B6F1DDE34503D6D36AA
:1023C00037228B055D68AC53C44F505F577A731248
:1023D000FB1A290FBA75955E005A386F4F1563378F
:1023E0001844E6348D0F8464BD442D3AFE45866161
:1023F000C703CC23CF390A400B33EC15FA7169536C
:102400002046AC500A6FE511B5264323660C1272C4
:102410001865D26DC7071425E735D730F8179075C2
:10242000AE556741553D344BE967510B9F2CA44293
:102430000C44752C3C024156003C143F635C08047C
:10244000F02105298E19B47F7B6CB96A28795D0E5D
:10245000E81E38236119C303896A6656254B1C4C54
:102460006A5CCA7B2E24654789550146871C3869FA
:102470005F410E364F4A58700014F625C321920E64
:10248000F778626C456E1C7B1D0AB913A514530DB9
:10249000797FBE6C4159814DF551F169C311633C9F
:1024A0006956F650272CAC7742499D32853A455AF9
:1024B0006A01261E7727D71F1B10FB01537A30793C
:1024C000D37D6E06580FA8149D128F053C6E815562
:1024D000004AC8566A7A6927BC49D0503B389808E8
:1024E0008355D93413326E491B6D620E8B23CF296D
:1024F000DC233D171409FD7B24734F73AD7DF70C6E
:10250000DD16E8112C7D7461634D434E5E68F51352
:10251000813E16534F471E215F71CF4AFD3AFD445D
:1025200080600801421DD02F1F36C32E8B1AED7F0D
:102530003369975F0667B37AE90E4F17340C37712A
:1025400064561A4DC65DD603FB2E9E4B5B4C203164
:102550003207CD5F7B47A642704F9469430A7928C2
:10256000AE3BBB3D372D790E966C0A578057BF6B3B
:102570004708101DF51D940A946EF35B7960B97BD2
:102580001E203A3C2044ED35591778727652E43FCC
:10259000953E5B4EA76CAB124D347544C23BC11CDB
:1025A000297464534F488657F17711162F21C915A6
:1025B000227EB5691B649A709F0925236B31B02F69
:1025C000871F7E05DA67B74D163F1043D35B0D04B6
:1025D0004D2F0E4EAB5225384509C05C1F46A14B0E
:1025E00012666C050719B2185008E773F367C569DE
:1025F000B076DD0820196C21CF1E98103E79795EE7
:10260000A447233E334BD66F8320D9493259A24782
:10261000A91D1D6DA44ADC429D538270130A481601
:102620007F148809507C2D740575227DA6082D1510
:10263000101F7B1F0B11C9749653213C253C4A582F
:10264000F3075D379F512E4B3427EB76C14E853B08
:10265000CF40665838759A0B5A16F3169311C60870
:10266000EF7EB278BB7ABD055B150B218C1E5D0930
:10267000EA6603467639954AEB731325304945518E
:10268000533A1B0FF962754696400E4E4866F400A9
:1026900070171125F326091D0F0BE277816C1A7054
:1026A00084014D15591DF811AB75B154E53FAA448D
:1026B000A164B913B13D8350E946BC27CA7F3B5D95
:1026C0009A49D8474456BB6F940D772840377032EB
:1026D000471B4A7DC0666961516FE007B81BBF1D8B
:1026E000F0090E6A9E50534CF860B006CF2D6B4631
:1026F000A74787334D1383701453B7418241685401
:10270000C575761A5035F43B342B650A9B692659FA
:10271000A160C9797F14B9213B1AE701A066DD5891
:102720003961D37AEC1976332B3FBB399824740482
:1027300073619A455E39B4420662DA0D9B35D5481D
:10274000BA3F2D20B5790B5E5E59E76A6305DF1746
:102750007C1840090F746B64B661EB6C2402D719C6
:10276000B32BAE32B52C301868771C54CB3BA23952
:1027700014524C7F87302151AF537C38020E2D69A3
:102780009258445ED97142061D11840E08029F744E
:10279000276DB36D8F76AA06441AF42A7231252864
:1027A000B80DA967B443143374400269831CD9443B
:1027B000D05194408D1A0A713755A44E9859D66C51
:1027C0004C7FC60A910D58098E01907AF077A77C4C
:1027D0003C0AD11D2F2FA1320520C57A3F51F43577
:1027E000A8362F55E605E233924B84454528A101D2
:1027F0001C60124E9E4DAF5A7C6EE10175109C1705
:10280000ED14D508607974703D75FF069C1DA62BEC
:10281000E4248A07405EFB3B5E32B1469970921F0A
:10282000B541334BF73A911A0C78945D0650DD5060
:10283000245F707765114923F1265C1A2D03AF6D73
:102840006E66DA72DE0BF3216026BF131871B44D89
:10285000713A07428A62FA0DFC32E845A643342FEA
:10286000800F686D8E51764352478D5C177DA71C93
:10287000102DF826FC0ED0728461576463794514DC
:10288000E224771F7205F4648B4D1D4A1A5DCD7DDD
:102890002C20DF392843653A6722C57F695A673E95
:1028A000D0366147A56A0C134F30B836CA2482056A
:1028B000A46AE261CB6DE7043318521C5B0E2F75DE
:1028C0008A5D1F523C578C6A5705D120B235DF3BD9
:1028D000B22E0610C467C442BB2FFD37C15AD40ABA
:1028E000583320441F39E81A0D7AC8652865517499
:1028F0004A06270FA60B9D7EB46DAC5F205A0A6076
:10290000E3702709B9223635CB377524F87DB351EA
:102910000E32D92DF4470B76822558428A415D2824
:102920005D06BB6A845EAC61276E1F7C52041B048B
:102930007B7DF973046B9766866B947CD816E230C6
:102940005A3E0E3660168168403F492D1A3B63623D
:10295000E210C1339A3F013394167E77D060A857B6
:102960002B5BC16697756D03730A5E07B77C7B6F3F
:102970002567376C2B01F71E0A37FE39BD216F76AC
:10298000D749CA2EE530374FA47C9126393EC63E42
:10299000132DEC113A76F461D059375E816C460004
:1029A000AD12381B79146F01686D93650071410B8E
:1029B000AF26233405291A064C5A54397D30554226
:1029C0006567BD112333E7413A3C7027410A216C0A
:1029D0004E558E4C3956416FFE0B401FC120AB1037
:1029E00043788D66C467767C0419332D5A2DC81739
:1029F00087746E52B5403A46AD5F3F033F25603D58
:102A00003846DE3B0520A97AB5566340C940DA57FF
:102A1000A27B8D1BDF286C1F4207CD6F98667B70F1
:102A20002B084620282A3E1FC50413677D510C4BF6
:102A3000E755E06EF90E302D08419D43F730150C37
:102A4000F5600840B6365D49526F5B175A31C433A2
:102A5000872087050373A571417FE111491E861DFB
:102A6000690F4279696368550A53F75D22767F16CC
:102A7000CA34D744823D861EDB71F5471232A03A34
:102A80009B5D500AFF2CCD38B52D3015D97C2270B6
:102A9000AB71817C8C08F30E6D0D91041C76F16591
:102AA000685A5E5A95695A0674291346594D363844
:102AB0003F0DF45CE03A3735C44C6E751A1DAE33E9
:102AC0006D3335226E0AC7752D6ADC680770127B7C
:102AD0006B0402089303EC761A668B5ADE5D1E7453
:102AE0001E18DC3AF34B8641721CA76A2341CB3097
:102AF000E83D7D5FDB067E26573575314020620A52
:102B0000BA76BC698D66E46DA97C330CF013FB0DBD
:102B10005F7C4568925D2C66CF028F275041014152
:102B20001C25C178D14C28324932EC4AD170CE15DF
:102B30006F2F3139AC321F1FD204FA6B025DCB5CB0
:102B4000CA6AEE0051146919000C42744861805F32
:102B5000577242122E30923C772F300D5C646C45D8
:102B6000273AAF440561DF05AA27ED3C0241013356
:102B7000C115CB71DD5365489A53D26D7209CE18D9
:102B800053142F001769BA5D14675201C31E2F3109
:102B9000FB2F1E1B767A955A31477A45AA548E70C0
:102BA00088120532784431417527667FA15720404D
:102BB000CB41C75A3A7E8C19CB206C14687E806C4E
:102BC0009D69E577780FBF233A2A0A207E09D26DE6
:102BD000F554D3450D461D585178CE1D113CAA46DB
:102BE000FC367A10C962A2414939034B426DC40FC9
:102BF000A3235B227011087E29730975BC00160F90
:102C00009719341B64115D7E14679751B545434B8A
:102C10006D65FE0D48369F4D38497D29797A034F01
:102C20001B396B40825DAA00BB1A9923771CFB0BF2
:102C3000437BD97168714E774D00CF08430C8F06E6
:102C40004476775F314C39472457BF7A8326BE4894
:102C50004051203A2B0DC35DEC3D9437104AEC6A8D
:102C6000FF0A2D1F9B24B81D1A0F8B7EBB711E6D92
:102C70006B72987E180BF010A10A8877CB5E9E4D80
:102C8000AE50196B231313386B499E3D78186E694B
:102C9000014329326F397F526E730A12DA25142BE1
:102CA0004722A00F5C7AB2698A64506E6A0185126D
:102CB000F6160B0A1171B1585A4FEE5D5300E92612
:102CC000C93FDB3F4B2721009658023EB238CB4725
:102CD0003164A4050A23AD347A3531249F076B6B28
:102CE0003C5A0C5B836CC2037C12080F517A6660FD
:102CF00026510F56436EAF10EC2E1B3B77308114DC
:102D0000A971635340427842B35454744318AE35AA
:102D10005B42CD38751B62750A57874DC95A977447
:102D2000B40B5B14C00A6E75BA61815C556AA70466
:102D30002720C7313E326F219304F8635649653C22
:102D40004041F7580D7FAD26244008417428B40057
:102D5000B35AFE45174A0B626B7F2C13B0155E0900
:102D6000BD77E96B0A6D0A7B920F582129295324FC
:102D7000C812EE764257703E3E37E5467E6AF01640
:102D8000B33B7149023A9414FC69304C7D45B2540E
:102D900000708E09311676136F07E17A9773E67328
:102DA000957B200828158D1C90181207276B574D0E
:102DB0008B3A773EE35BC70945366A4FBE4BF32C2F
:102DC00001005D582245DC494F5F3479670DA31639
:102DD00093141E0B2E7FDA751B73217835041113A3
:102DE000FC1B991607019962A14814409150447741
:102DF00068251C47344E8A381D109D659E47103E3D
:102E0000214926619E7BE610691C491CBD114001C9
:102E10000A73186FC1771709A81A5A2182157D798C
:102E20005859C845E44A456829129F3753494140DB
:102E30004A218C79FE560843EF40844F2C6A7D0866
:102E4000D420162C60274815B87DA36B906849766E
:102E5000CF0B061B5619D8044866B24C3746B258F9
:102E6000C87C0B23B93C79413431EF11016EFC5021
:102E70002C43AC47E25C327DF41E5636513A782939
:102E8000DA0B856FC360E5641778370DBC159C0BB2
:102E9000F3739A5B9D4FD256536F0F10492D3E3CF2
:102EA000D4377F227F02E55F9B44313ABC458E6474
:102EB000930C1F2F7C3E9F345C165372C7594E569D
:102EC00079654D7CF40D53114C05A3715B62B460C0
:102ED000E36D6D04201D5C300E378A2DD3148D7286
:102EE000EC4F443805363C4D0A77CE22193EF43E6D
:102EF000822759039262EF52C758ED6C4202230EAB
:102F00002C0D2602EE73556A296A84742D06441925
:102F1000F027D72BA61FCB02CA5C6F3C4330093F7A
:102F20001765C914503B7A49353BA61936753B5C89
:102F30009A55D65FA272BC03230C7D0A6C025778A7
:102F4000D06FF86C7E739103BC178626C6260514D5
:102F5000D071584C4D34A936BF54B8025C2E23476B
:102F60009F44172A19044A62FF4FF04EFE59456BE1
:102F7000287D8409290C7905DD79496F076CD8749F
:102F80006D085B1E512A42223F0613614142F13710
:102F90000B491A70B61CAF3CCB4431356E160F731B
:102FA000A45560469147C156006EC4058716AF19F7
:102FB000830EDB7BBF6CF86A6578740EAA217125DD
:102FC000F712F26FB04CE5397340055EC7066F2B00
:102FD0008F3FBB3D9C28EB0873688D4F5045214DBA
:102FE000BC6418044A1F682C89278013BD7AF56ACF
:102FF000D46C717EC813B11E1D17037EA05D4145C0
:1030000092402452287348170133FD3EB637B91E4B
:10301000E27B125A8343A23FF15010726016002FD8
:103020009D31391F0303636B8463BF6D8A0267148C
:10303000EF17BD0A9473BE5DB95249579E6BCA091A
:103040009227A93B1D4046329D13C46BB1473435CE
:10305000863C005B2C046D276C36D72B5D0F72719C
:10306000A960F6611C71300467109C0F2802116F73
:103070008960C55C306578787912382CE73B443933
:103080006222637C0E53C6355C3186497D74611FB4
:10309000A139BC3B4C28810AAC7024659B697477CC
:1030A0003305FD0B170AD1001773B0660262DA68A8
:1030B000007B7214E52C9438E72D280DDA61353D3C
:1030C000FE2E693DA96260108C342442AA37E51DAA
:1030D0001801696B3C6262652E709B7C6D05A807C8
:1030E000CD026A77816A3E65FC6D97040D21023638
:1030F000CF372422927A8950DC369F389154167F3C
:103100006927403F0340762CA80EEB71C75D9155AF
:10311000D3591968CE7AEE09810E1B076678266BA3
:10312000BC6882761011952B5E371E2C1E0CB06386
:1031300034432F388747AA6AEE12AD31BE3EFE38BF
:1031400098235D05096876541D50CD5BE172700CC3
:10315000AF1D761E7A0FD27A176D0D6F5A01291B9B
:103160000E2EA42DD91619723E4F6A3C9F3FC856A9
:10317000117AF31DFF36753E493327198577E558D7
:103180007748924C0A632E02751C2727C21EA50899
:103190004872826953734209581E6126421C3703E4
:1031A00081641B4D8D467A521F6D190FFC2E2443EE
:1031B0000044E82F890C2C655747ED3DBD4C3B6D15
:1031C00012102825EC2423130B7B346A35691E77F3
:1031D000170B2E197D19160CD9766A61725340535C
:1031E000B262557ECB1E993A284803404821677544
:1031F000F14CD537D93DEC5ACA01B521572E962549
:10320000E20FAA7AD66FE571237D8C0AAF128F1078
:103210002B047872B36134571658E16782040B258A
:10322000D03C3940C22A600271551D36F63138490A
:10323000FE6F34166E2EA2321E25D90E167B4971F2
:103240002472A8791D03240A5D0A9E017C715060D6
:10325000A956F45A2E70BB11593246429C37D214EB
:10326000E467B8422033793E6F5F8407C226C933D2
:10327000332EC41B6B04197077648863B76B267890
:103280002A036307950023704E5FCE5997668B0320
:103290008425BB3D42404E296F006256523C2F3B75
:1032A000DB509B731717972F9236A32C33178C7D07
:1032B000CC66035A1F5CD06BD800F70F7C11430516
:1032C00029726163BF633F779316D232873D143012
:1032D000E90E2E66F14490378C41D95C677F971FC9
:1032E000CE346339ED2B7B1060711B5AC852155ECA
:1032F0007C76C70F491DA618DF0519716467526FE8
:103300008A06A0228A34F631251BFC788058344482
:103310009041C5518B70F2142D34EA44AA41482AD9
:1033200027069862CB4D744F2F64EA00C117F41D35
:103330000312467CD36AAF68AE761A0D0121F628D7
:10334000E5200D0BEE6E8156544AAF4EC063DD058D
:10335000952B93470E4F733E821A1D70914F49452E
:103360004254067333116D21411FD30F947DCF72E8
:10337000CA74FF0128133E1F07217217B4030F6B95
:103380001856394DF155E86F91142C384F4CC446FE
:10339000A927A17A55529D3EE744C65F5102A31D5D
:1033A000E827B021C312DE03D77B307D36063C12FE
:1033B000DB1AEA1A6910197DD465AB52BB4D0A5D60
:1033C0003C7EC4256D43E149E0343B0C5660B0427D
:1033D000B33D1750B66F810F9E241B2AB6218E1164
:1033E0003F01DC769A740E7AE9041C0F43113E0704
:1033F0006072DE5AE54C0C52A66CE814423A054C59
:103400000A430123FA77155312415546265F3B7F45
:10341000B01A082BF42CE921970EEC79E26B1D69A8
:10342000F9710B020A107B127D05536EC059DF54EF
:1034300060655806452B3545FA47ED306209C7608F
:103440003F455F3EB64B566715087E23DA31313073
:10345000D01F8D06FA6D66601C640C76190B54172C
:103460000A149B02046CA45D1062B979CD1AB236BD
:1034700032417F35B0174E72C2513640F3414A5542
:10348000917495170334903FBB355A1B3A7B4462C5
:10349000B55A35666B7DC212CB19810F857AC46629
:1034A0001D60626B1F04A01F30314E315820E103B4
:1034B0007A642B4B5F4091491165B00AE22E494571
:1034C0002945332EA709D8661454F256646AFC02C3
:1034D000C6134914220684732068256A7F78290D53
:1034E00021205C2AFA262415C279C55C56476E4213
:1034F0006E5267745B1D9C3D794875396616BD6DCB
:103500003F506149AF58E7724A0A7C15CD121C073B
:10351000A47ACA74C2781B052515EE229028BC2116
:103520007C0D1C704F5358427645B95E3A07F32F15
:103530006B4737431026D97C7958FA45A449B35EC6
:103540008B79D60E5318D615E20B2B005D785F7879
:103550000F01D80E581A781DFE13CA7C585EEB4432
:103560009E3DA54FF575BB2129429B4A0C3844135B
:10357000B56BFA4F0B48E5525D69A2029216151F12
:10358000281BE70ECD7FBC731C70607756066A144B
:103590009117F009196F92524442C748E16695119C
:1035A0007437CD49C242D825A57E4E5BA346B645A9
:1035B000A055CC6E5409631D2F25B71EF90C2F782A
:1035C000606A466AA177E00A9A18DD16DD039668FC
:1035D0002353FF4E4960BF01C126814060448A31B8
:1035E000FB0F0C6BD44DE33F1A442A595C78FC1650
:1035F000192B3F2E5F1FA505046E0464AD6B0B7F76
:103600000A1271192B10AE79C360E05290588A707B
:103610000511D42CD8392B34911DAF7C955B114406
:10362000013DB94908683B0E4A2E593CE233041A61
:10363000287B316512613C6E06034212BF12020400
:103640001D6EE65C3959A065197E37195B2D6E3405
:10365000582B0613887149510A3ED83F9A57E47D8A
:103660001E25AC3E5940642A280826699059505DB1
:10367000876EA9013E0CD309A07DC36F01686A6AF9
:103680005577DA0B1D223632A3341C26E808236551
:10369000FD46C83AC147576A7B153C38C5442D37AB
:1036A0009F16287234592E53CC5D8470A601BA0A35
:1036B000140AE4015377CA707E725F7D3D0F0322C6
:1036C0004E2DC6294E14FC71F14EB4381E3A735576
:1036D000D800192B4643F640B528A606CA675A56A5
:1036E000EC550D636176CA07B2113B12530A177E7F
:1036F00002743372807BAE0CDF1DA6252F1CD9000F
:10370000925CFC3EE2366449CE6F851B1D3C8046D0
:103710000339111B1A79585E945161547A63B37856
:10372000520C77171D17740C9B7CCE6F326EDF7AAC
:10373000F40F5121CB23DC12DE732F5492425F48E9
:10374000D464F40C663164453543172D390B486950
:103750006851F948F050A765290056170422521CF9
:10376000AC0A0B778D6CE771490413191324201DE3
:103770004805236712507B4A91598878361CD83601
:103780000940DA35D41B437A275A08458342AB53A4
:10379000BE725B14522B082FD71F58074D73F36D61
:1037A0008978500BE41A8F1D8D0F2576105D2C50F3
:1037B0005E55A06ABC08D9251A395C3C372D5E0FCE
:1037C0006F6B9A4C333EF346A264D30B7A2C203AAB
:1037D000BF315519977DE56BBC6A0178B009D913E3
:1037E000D8100502366EF75EF15AD764F87ADD1606
:1037F0006F304D3F5C3CAD250A01005BC8415E3F28
:1038000033552C7B14220F3A923A09264708446F0D
:103810004564F068E976D9048B0B4B08D97D897132
:103820003E68E1660D71F80544205436A43DFC3035
:10383000D01128693A462E3732438F659A0F0531E9
:10384000893D0533A0195C7DD2697664DE6A04780F
:1038500097057F0D3B0D17057B78106E036CD375B4
:10386000B00A39236634D033FF1CA176E94EA23565
:1038700094369751207BF722CC3AC83C152C4F1137
:10388000F37658659F6040683477A2068110CE10A9
:1038900033075B78B56C2A6CAD79A511B429313446
:1038A000E228AF0939629B43CC3AA54ABA6C34147A
:1038B0006533D540FC39C1234B06886AD158805501
:1038C00004603773D8069912B8111E05A773BB6838
:1038D0003D6D2101551BC72D9F2D2A195D77CC55B4
:1038E000F9424146165ECD019124453BDF3FC03190
:1038F000C215A4747D58DA491D4DC660B57CB71455
:103900008F1E19176404F6726F6D6277710CF420C4
:10391000D428861EA004FB64564C85448C500D6C44
:10392000A20DC12AFE3A6839CF25EF04FA603F475D
:103930004E4153518C700F110825842555154C7F2D
:103940000270DE6E487B990DD01A581A800A2771D2
:103950007F58504ADD4BC55CDE78F5188533073F4C
:10396000AE3517192272EA4EC03DB044CB5F410319
:10397000621FE8295D21FD0BCA75BA69116CF078E8
:103980004A07A30E260BBC7DEE6AE45984513A56D1
:103990002D6939079F27063E4940242B7D04C75ACD
:1039A000033E7F389F4B496E5911AD26B3279618B9
:1039B000F102F970DF69CD6DF977E202D2087B067A
:1039C000937C826D9A5E0358AB5F1A76301559313D
:1039D0000B3E6933B112EF6626417430743A49598F
:1039E0008C7F8D1E562C9827871624022272C56A5A
:1039F000CA6C1976FA01D2099E08ED7DDB6D19605B
:103A0000BD5CC86806031A22E2378B380C2149795D
:103A1000D550AE370037A34D6071B414CB2C3B3476
:103A2000462BBB16297E2B6AB5604B63A06F037FC4
:103A30005909BB08327C6E6AF35DE15F88734C12F2
:103A40008B2E683A4C2E550ED9679C493F3EED4867
:103A5000F36429080C27B138D938D7287B0E0E72A9
:103A6000E85C1956E25E6272E106D611E00DDD7D7A
:103A7000A36BC963CC6D4106C02166334B32321D46
:103A8000917B355AFA44EF4246547C721914332F15
:103A9000673B0635FF1DCB7DA85FA74E7C51FD65BA
:103AA00064013E16631B8310137E0E70096FE77C62
:103AB0002A137E26652D0E233F0AAE6BC151704539
:103AC000CE4AB8603301F322CE3BAE42B5336F131A
:103AD000E56D3852394B065A1B76C111BE20491E7E
:103AE000B90E4B7C6E71B87384014D13751F021FA4
:103AF0003611757A0562C14F0A4A2C556D70D6147D
:103B0000BA36F748AE430428CC7FED5AB147134C80
:103B10009163F001F819E0226B1B820ADC7A33749E
:103B20005C7804045A108E175916C10AFC76676136
:103B300019528A51B9632705E62AD145224AFC3435
:103B4000BB0D1E6349458A3EF84E5D6DAC0B9B1E56
:103B50000D221319190BB97E5278F779FD015D0C0E
:103B60000914B01351084074805F0A54B5592D727E
:103B70008915D6356D45CA3B3A1BB070724C8C3BEB
:103B80008A42C75B017CC11732276228CB1D870C94
:103B9000757B0D71FA70707AAA079C10A80EFD7FD4
:103BA000156A1A57FD511C61BB00A724593D273FD8
:103BB000FE281104C95E9746AD421D52116E270DB5
:103BC00020261532292E211DE005DF700766816849
:103BD000AE752006830FCE0AF378CB626E55B35ACA
:103BE000E372C014DB31523D5A32C8151F722453A0
:103BF000BA428145B1596A78AF178A2DC5332B294E
:103C0000A111D875B060975A3C65C079480CAC12C8
:103C10004A092A765E65A7612F6F05092C24443571
:103C20003235F922EC035C621649953FD448446270
:103C30003F0481241338AA375D2318039964F7548D
:103C40006359766D84055E14CF134D067A745D69F1
:103C5000B96B5A7BD5113F25172D42254C0FF671B4
:103C6000F9557343604192520A73C11949399D4411
:103C70009337EA170273AE581052735E7E75DE0AF0
:103C8000B914451057023174CE6DAA720201551253
:103C90000D1FEA216418C5035569EE504A44634B71
:103CA000A966180E7233CC475C4342289B01E75E3D
:103CB000AF4C824F8662E27A820D0D14F70ED30369
:103CC000DF79FF75007AAE041A12A41D47219217FE
:103CD00022010E65904E1349EF59A07C7B24E641EA
:103CE0009D48E4358C111B6AAD4EB9473A54D16BEF
:103CF000C5032914C219E5151C0CF900037AE37AEF
:103D000030043812E01C741C6D0D23732458FB48DA
:103D1000484EF6680010C533F345193F7A22C87C37
:103D2000365C2D4B2E4D775EC677A110ED214B27CB
:103D3000E41F01100E7FDD7473764802EC10331916
:103D400012141A00F064834F2D4B415D2C00E925BD
:103D5000F33F8544F9326B132E710357F04B1B521E
:103D6000F2662903891D7E2DC82D8C1F91099E7531
:103D7000A86C0872EA019612BF18CD0E8378F26023
:103D80007055FF5D7D78E61AEB37D344C93D6E254B
:103D90009303AA624D4C0F476054A26FED0F802A27
:103DA000F535782EE317B27CA569076731741D08D5
:103DB00065169D169D0842740B655F634E716E0A11
:103DC0006A252138903BC02D0E1295705F533E43FB
:103DD0005546F05C7500E224443CDD3D492A510B18
:103DE000E46F8163F3684F7A330CC0146010F501FF
:103DF00094713C68F56AC479B80F3224C62F092E35
:103E0000AD1D2A02B962AF499341AD4F2A71701AB4
:103E10005A3B2047A33A0D1D197C8165F65F046A61
:103E2000D57BF50A5110A40A517EA872C56DD772D0
:103E3000AA003313DD244F2EE929D5152A762756FB
:103E40003243A1467761D2099A2FE5441942B82935
:103E500073071C69E158F859E767B5799507890D2B
:103E6000110B8D035C7B69760D79B0046316102706
:103E7000152DD3213A069063CD47763F754F9C723E
:103E8000841B533A92433235CA161975845CAC537D
:103E9000EA59256A767D9F0D8516F015ED0CD60042
:103EA000CB788B7A2607D3185E25F4232411D071A2
:103EB0006E52BD40CB455F613109C02D5B416D3E07
:103EC0006B28CF08D76A2557E351465BAF6FBD0714
:103ED000DC1A4122F81B290C397B7F72C876BF059A
:103EE0003E17D61FDF1759005D62284C2F49E15B52
:103EF000847D7C21243BA3420437FB1C6F7C2B5F19
:103F0000DC4D474D435DC177BD121E249C25EE1745
:103F10008D027B701C6B057521086918FF1ACA0C8D
:103F20001F74D35C0A527D59D770A80FF22BD43C72
:103F3000833C932A2C0C266A074FD043364C60658D
:103F40007D060E2309303A29B913617B036DDB6EC0
:103F5000697DEF0E5E18C9133E034D6E855EEE5A05
:103F6000C2653B7C2B17C62DEC37EE30CC1954784C
:103F700096568640363F7454B178E81D7D35FB3641
:103F8000F924C60A4875FF6CF272BD001C0DEC10D6
:103F9000CC091B7B9D6B2262BD634771F006D81E66
:103FA00076311237372BC10ECF69634AE03D314A73
:103FB000C66A8F12AA31E43C7C32C0198C7EBC6B7D
:103FC000AD668C6D117AD504090824036579046FF8
:103FD0006E69A26CEE79D40FAC2736378B35901F03
:103FE0000C7BB855063F544021594B7F78236E38DF
:103FF000FE3718256609F86F0C612E5FA867B47448
:10400000E100560865084801E8766C6F9871390040
:10401000F516FF2B74336F267607196160425E3800
:104020004247D668D60F742D4A38302F4B18907DF2
:1040300070673C5B655B7266D077E80843123010AE
:1040400060048B75BC6D1E7369044C1A3E292A27C7
:10405000D7112B70844FCA3DCD42AA5C1101B82202
:104060005037083A132CFD126976D25E97530F58D9
:10407000A0698A00AE123818E40F087F4B6F6C6A93
:10408000B474C309721EBD261C1C7B014D62204CFA
:10409000F1472B57FB73A314982F623DB539442584
:1040A0002406E3653C4FE449B756C06F3E0AFD1A4B
:1040B0007E1B630DDC79AB6C156E9A7D06129D1F1D
:1040C000261EF80C6473D85B174FED51F46317008C
:1040D000181E97349F3BBD2FBA131470E250434112
:1040E0000B47DE5FFB00381C0527571F4A0C507A30
:1040F000F7729978B606E713811882116400666B2F
:10410000645AB853085B8C6FB10B3227C338BE3882
:104110001725B302F95CC442083F2553DA75E1174D
:104120001E2C722CD91C10089677B471ED765201B2
:104130006A0ACF0CA6059477E867375C725AB265B5
:104140008D7C0D1A7D341940EF358D17446F3D4D30
:10415000313FAC4920675E0A5C25872FF2270015A6
:104160000B002B71916CEA70D37948021006F102B2
:104170006979A36C8F628462C6707D0B7D29573D7F
:10418000803C9724B27D14575E3FCC3E64540B763E
:104190004716732A962DA121F60DA97A476DD1688D
:1041A000876D56786404510CD80A4E7FB76FAD65A1
:1041B00066697C7C97183731A3394C2C870CA16534
:1041C000B6468D3B9E47B9644907A023F231D430EF
:1041D0000923920D8C77C2674A638E6BD07B730B79
:1041E0001512A10BAE7BC86B0266BE6FC206022120
:1041F000A031872F3D19DE7657563A44AE463E5BD6
:10420000047ADF19E731DA3B7D3589208903956827
:1042100081593D5B186B40002C1024136F085F77A9
:10422000C26A4C6B1C7B6413C927802DE720AB0648
:1042300006699A52984A4E53046A65080D26BD399C
:10424000423C0B2C120E8F6CB253574C3A58C47030
:10425000EF0937184216220841783C7117786D092A
:104260000A1C53261923F712E77A7762A451444EA9
:104270009F5A66744F141230713D8936B11CA7786D
:10428000F3573847E44C3B659003061A7720AA178A
:104290001408BA7BAD78707F800B1916FB190B14CC
:1042A0006704636F7F5BDA4F4B527664D5027724E5
:1042B000063D8042CF304C0DAE66C34C0249D25A07
:1042C0000778E11282213221B815C6065F7B90770C
:1042D000AB7B3E04560C2C0FD209B87C046B9D5A64
:1042E0005F53695BF673A416473623457D3B451C37
:1042F0004074F35224444B4B6B62E17E0C168E20CB
:104300009F1D7D1196026E77FD7278758A7DC706B6
:104310001F0CA209E17CAE69EE594A5795675A070E
:104320005129073FA73EF32616017C5B4743D73F41
:104330000B50C36B4A08A41C832437204513200369
:104340001575D56DC770F67BBE08240F0009AE77D2
:10435000D663B558F25E34769A156D30FA390E2D63
:10436000E40E716AED4CC1400448265E707B2D1747
:10437000272AF42F4D274313987BAF694C64B06C08
:10438000BC7C3F0AB70CC201256F5A5F6F5C9B6A09
:104390002C05F6207431F52E441A8B7B125E0F4BE0
:1043A0001E47CB52EB6A1609A02470345232B31E5A
:1043B0004901A965DA56A059F2692D7E170BF1095A
:1043C000627C236B91611D67C97AF8134D27AA2C73
:1043D0003022B20B287041573A48734827590E765D
:1043E000B0167C2F93365529840CC86B6054A64EAA
:1043F000815B61727A06AC0EAA08817AB06E906C0D
:10440000C9757A0657179A21EE204114017E9763E9
:10441000134DD942F9494E62320567268B39CC36A5
:10442000C31EEC7B3F5DDC4EB154C4686D7F250E2E
:104430007B10FB08FD7D23764475797B2F06FE10EB
:10444000EA16D5131B06E56F8C57BB45F142C253E4
:10445000E0746F1B7C38943FF22DA20B6467944F7D
:10446000F24A1157E66B927F110BDE0CD506507D98
:10447000AA752A730F77EB7FCF09D50FF40CF37E63
:104480006E688C519C450A4D8168EE0EA3305C3FEE
:10449000AE356B186A739A545C45B347D957226E90
:1044A0004F027D0ECD10010B990035769F70C872BA
:1044B0008A7C22095E106C0B0B790460B74C714A40
:1044C000235D557EA2206936F4368522D601C6606A
:1044D000174AF943BA4D2F62877AD20FEA1C881E19
:1044E000AD1417042D74A26C9C71947FEF0CE80F2F
:1044F0004004CC6D5A57E04CAF54736D1E0E3129F9
:104500000934EE2AE711CF72EB577D480348E35593
:10451000D46D80097F203B2A54231F0F0677AE6697
:10452000A764C46F0B00700A9F0737789063C95463
:104530005055CC66F702D91EB32F533061211208B3
:10454000E26B025434474B4AB15DE57B6A1A6E2D2B
:10455000832DBA1B80003368F65CB4617C71CC019A
:10456000DE08C1023B7342643F5FEA676D7B5C1209
:10457000D124192D542884164B7BA65DED461B4093
:10458000124D656ACF0DF1294334BA29ED0FC3727C
:10459000585FD55C0069997A3C07080924010876C0
:1045A000716E396E2C760C04D41385206E24971B03
:1045B000F0054A684C4CB63C0741FB59AF7F4A2492
:1045C00068393837A420F0007166125B825F4B6D4A
:1045D000E87BDE04F405FF009B796873B871D5763B
:1045E00037025510511BDC1C4E119C79AD5CDA452D
:1045F00073407651DF73E31AE6362D3D592D1510C1
:10460000D571EE5C2556E75BD2683D772A024906F4
:10461000A503C27C2A7590718E753401C7108F1C5A
:10462000CA1BCE0A3B6EEA516943094B4567930C9E
:10463000DA2B2C3ADC330C1D4D7F85642F54B85196
:10464000255B8B6B977DBA0BDA11050F3405C779A3
:104650007774E1797B08CE189D1F7B156B7C745EA7
:104660003D4911478D598679721A74309A34D7268C
:10467000960DBE71575BED4FF051FD5FCF75CB0CC2
:10468000931CBB1FE1156604AA753F727D7B150B59
:104690005E16A0140204E96A6354F74A2354FB6CC3
:1046A0004B0C2027EE345A323A2141078E6B4E557F
:1046B000AE4BD052BD68D205931EBC282821850D73
:1046C0008778766C5D6E007B6D09CF0FBC08F47641
:1046D000E662A8561359C869D9020B1C272EAE34BE
:1046E0008B2DFC18277BF55CC348AE468F5882772C
:1046F0002217862AFF2AD71A27031670F5698071B8
:104700002600E20B930D7B04B9754D693665236B6A
:10471000C4797B0D34212B2F313147236307BF65CB
:10472000C649993EA749C8666A0ACB263A318D2701
:104730007011C17A4B6DFB6C1E76ED003D079E0635
:1047400024004A778A6F2C6C2A70577CCC0ECB21C0
:10475000F92C8F292A15FD749954AB40E342965BDE
:10476000A5002C23A835553322211D096575636BDF
:104770000B6BFC70F4787E7F12022D7F4878B67048
:104780009D6CE070DC7ED5122F25592CC8214E0679
:10479000B663B7488541335271732D175B305D376F
:1047A000232D5618D600E76D8F63C962336A0476ED
:1047B0008201FF071B07D47FCB76EF725179580A2D
:1047C000901F932D9E2A881418731A54BC44604B72
:1047D0003F64EB04FC216932B732F2246D0EA176FE
:1047E0005564C45BBE5ECC6B5A7E4D0F9017F713B9
:1047F0007D07057BF37733024615E1253C29271B0E
:104800008F7F8661844DF04A705A5E76C814FD2B06
:10481000E935D630241F6F06806D425B09567760FC
:104820007876A10E651EAB1E3211A77FD5740E7768
:104830009B043315821EC1199707C76E7B59C75059
:104840001458B86C18082A224334D739A330011AF7
:10485000937B675F2850FE534E69CE055E1CEA23AA
:10486000411BAC09D5790174B17ABD080C15261825
:104870003D0FE17D9D6BD75FD35EE268137C07142B
:10488000BC2A4339AB387926BD061364E84B6B4725
:10489000A957C474AF11E02232232E162005777970
:1048A00066787100260BA5114F10BD073B7BFB6E90
:1048B000D06650662370E003FA1C8F32B63AAF2FF1
:1048C0000E13716EC44F15430A4D67685309A12238
:1048D0008C2B602498141305347CFD7A3D7ED9021C
:1048E0004006040640012578CA6C89644A653E7218
:1048F000CC091824A3354E35DB208D7EAB5B944666
:10490000CE47055EBA7E4E1CFC2CF02DFF22F21223
:104910005E03E277B772CC7361798E00CC048402B7
:10492000D879066FDB68C46DE17FCA199130EF3822
:104930004B2CFB0D496A744FBE47AF54066F2A0CCF
:104940009522CF2C592AEB1DA90BC0780B6B7A66E8
:10495000E76B9A7827069A0DEA0AA37F5873856F4A
:10496000007AB6106F293C37A3317A195678DC5A91
:104970004C4B174E2D60307A61148527DF2E71293C
:104980001519BA02AE6DF86053617F6ECF016B11DD
:104990004B15140CBB7CDE71B7731E037B188A2881
:1049A000502AAB1BED017866B652094DB1562C6CFE
:1049B0005C0713215B324436032B1C138576E65FBC
:1049C0001D58E6612C77240C85167D125D046C76EB
:1049D000CB7151791B09F7188520621BEC0A1575FC
:1049E0006B612456A1562B638B792115182EC83B79
:1049F000F2377521FA7FD060FD4F28537A66E97E41
:104A00008210C714D60CA67F75761177C400FF0DEF
:104A1000CF170419BD10FE0109714762435AAD5CFE
:104A20008B6B53057622DD37B83B202A17099D652D
:104A3000154D3648DF565E70CE08CC166E17DD0E6B
:104A400081048E7E4F7FBC04F60AC50E2A0E2E0806
:104A5000A57C176D555E9857985E177476121B2EBD
:104A6000DD3A60326F160C721D546C477B4F8166C5
:104A700016011815591D091BB512FD080001217CEE
:104A80002E7B167EDB027805ED019A76C0661D5AF4
:104A9000AF58296707030E223137683838246D0272
:104AA000ED60EC4CFE4B735B2A73270A4E1AC5204F
:104AB0009E1D1513B3044277926F2B70E777C401E4
:104AC000D3068E029A752766135E0165967B001ADF
:104AD000CD32B03A892D66109E6FB156204C6C5184
:104AE000B8626679600F3F1FA0245F1EAD0E5C7B2D
:104AF0006C6C2F67916D197C7C09670D1005E27451
:104B0000F36688657474F20DB12683337E2EDF1947
:104B10004B7D2E628C508F4C6056F76A0B05C31D7F
:104B2000C72DBA2F1723380C3874D9656C66BF733C
:104B30003105B30F100DD07FDB709D69AB6F3F0166
:104B4000001623252828201D2908BD6FBE5A3A4F7C
:104B50009950A15F597948173430873AAF31ED1831
:104B6000687A5063A95C7B66C87822089D0C0306AE
:104B70002C7A4E718871437B760A0919C120981EE0
:104B8000F0128300006CB35A3D527F57E66BEF0A78
:104B9000D829163C8C39A422F3000D636254E357E4
:104BA0007868CE7BB308720BD5052C7E617AD17CF8
:104BB000E104370F84173A1B6B18740D637B3D6655
:104BC0003455E0501F5E857A221C4435173B2B2B51
:104BD000B80C816CE956D9527F5EC271D103920E36
:104BE000D010A90D7208FD0330025103DF077B0EC0
:104BF00000138410B203616E57581F4CAC51B0695A
:104C0000FA0B062B503AC0330F1B467BEB60AF54B8
:104C10001F587E669E789308DE127F16F313300CC1
:104C2000F401417A7079D07F7309320F7E0A987A45
:104C3000106515541D523363290226231939363B5A
:104C40009329950C7A6F685B6E54CB59EB677E7A2B
:104C5000B40C2B19F31B89143C06A8775070C07351
:104C60002A7F5F0B990FA406DC73CF604758386129
:104C7000F0798A1876309938092F6918A47CCC63AA
:104C80009F538F4F9B58816C8405C91BB927012501
:104C9000B71594014672006F67789F070112F80FED
:104CA0007801FD6DE8603C621372E40953202B2DFE
:104CB000232C1B1E5707A86DC657EC4B764EC95FB9
:104CC0008B7B3219132E75325025400D24769C6A49
:104CD0001C6E967BF208530D02069477B36AA866A1
:104CE000116E427E4B110C215D287F2424161A0080
:104CF000996749543E4D0F57E17039123B2E803968
:104D0000FC2F2417057B14685064556D087BA004A4
:104D1000A505587FB17623715E72077B7C08C316A8
:104D200057225A2751223F127A791D5FC84D5B4E98
:104D3000F56267044E2563385F36DE218705AA6D6C
:104D40001B6232646F6F1C7CA8040C078A04C600C7
:104D5000777E237F9903150C4B17262112248E1A78
:104D6000BE0394664A4E67467D546C73A816D530D0
:104D70008A386B2C2B14727A33686462726777728C
:104D8000B27E7D084A0E630FB70B3E05CA7FD67F01
:104D9000C0078E14851E211DC60CB671C756CE489D
:104DA000444FF068560C7A2B243B4D37DA23EE093A
:104DB000C1722B64DC5FAA644B706E7F730D7B1530
:104DC0004D14D20AA97E6377827AE7063315461C12
:104DD00028157500F366BB54835318652E0376229D
:104DE0004E377A3BD62FD6194900E3698D5B5A5866
:104DF000B361DD74EC0A851BF31F5B17D4074F7A90
:104E0000C0769C7FF90EEC1A2A1BFF0C0576886190
:104E100092591F6229789E12F32784321330B821E9
:104E2000020B0A71D15A7A4FAD532267FB02991CCB
:104E30001A2AD42686162E035577C4782D055713C3
:104E40002B19F6117700336D7D612662AC6EAF02CF
:104E5000C2170F28542FD42A1D1A7B003A65AB5174
:104E6000CC4D695CC478DB17EE2CD92F93214F0B06
:104E7000EF7827722D77CB017909FE087E000C743C
:104E80008469C265AC6A8077AB09081D352C6E3128
:104E9000C6285D12E5733E58B44A11525E6C3A0E54
:104EA00057293033F129FC145B7FBC71F56E2E74E9
:104EB000A47B5F007F008C7C8C7697716670C974D0
:104EC000827FC00F8021972DF02CA71BF37CD45B31
:104ED000F7452E45255ACE7B0C1C7B2E7E2EA71F18
:104EE0005B0AD4776E6DA56B75704B78727FD703B4
:104EF00093040C01CD7A03763177360184128A232C
:104F00004E2AD41FF1043A6367482540DE4D7A6B80
:104F1000DD0CBD253D2FF8280218210444739A6842
:104F2000B6650F6AD473E27FB808C609AA0238775B
:104F3000046FA2712C00E813E6217D20810DCF6F54
:104F4000BA536F450B4B1F626C01A61D332EF32F16
:104F5000DD24B311E27BA068AE5C735B6B658D767C
:104F600019072D0F0D0B407EAA711F6E5B779409F8
:104F7000E91A0B211117CC7FEC64F7518D4EB65B0B
:104F8000BD730C0E1E23A52D6A2B0E1D8B05D76A33
:104F90006355134D3155206A3602E112B515440BA5
:104FA000DD7BF0712374D601D312EA1C3E19190877
:104FB000A0702C5C9F52E25645663A7C8B13E32529
:104FC000972D1E2780121C75F258C3481B4BAB5EF1
:104FD000BB7AE2124D1DC9172408DC78A272B6779D
:104FE0007E038B0DB90E9405D375FB64CB584955E0
:104FF000E95B4B6C8503AE1B0E2D5430F621450545
:105000004464C94BC54544548270970DF61E7D1FFC
:105010009B126E014B750C721176A37CAC009C7FC9
:105020006D79CC6FCB65545EF55C3D6595777110FD
:10503000B1274C336F2C0113646F474F16409D47C7
:10504000D460C77F4917EB1F301AEE0B297D93738D
:105050009370D472B477AB7C457FA97D7277146E60
:10506000E665C364C26E9B03CF1CD72E8B2FE11B5A
:10507000A1798856C0409A3F1152FB6E480A8F1B97
:10508000B71F8118F70A757C1771916BA26C1E739C
:10509000C57B0D02DA016079556C8062A1631073E3
:1050A000850BE921B72A6F1F6503DF613D48DE3FAD
:1050B000794A8C62ED7EC3161D244F25F41BAA0B82
:1050C0001C796769E2612E65A170BE7DE3041B0156
:1050D00005748E65E85F1469AC7E3817A0268F24AE
:1050E0003B113F74AD5800493A4A875A8E73690D97
:1050F0009821712B5328FB185B01F86818592A571F
:10510000D362D075440523090001FC7236697C6BBB
:10511000537AAC0FFB201C25981980028C68E05450
:10512000294DE35212643D7C49151928132EDF23C3
:10513000840B836DB555684D2057B36CCA02890F37
:105140009A0E0403FA75C570247707065E15C71C0E
:10515000221894089173A45FEB514E4ED156EB6A1E
:10516000B806CF2109324630E81B467C205EAF4DA1
:10517000C3503164A27D1A1148175010F4025178BF
:10518000F175CC7B7305060D890EAD08B07CE56C1E
:10519000E35C7752DF520161687B5A1A7A323E39FA
:1051A000CF2A7E0C0C6A8E510A4C2759B6703207F2
:1051B000C4130814DF0B9601677ABB78ED7BCB0133
:1051C000D307F80A5708327FC970746133599A5E61
:1051D000BF72C110862D123C2435311AA0756F564E
:1051E000CE47714C325F9B76BF09C9135114ED0D48
:1051F000B604757CE3779178247EC505D50AE3086B
:105200002F7EBE6D2D5F5D5BC5676F020E21EB3596
:1052100012374A2363027161604CC7483E55386BB0
:10522000E602F6155E20B020E917BB097D7BA77268
:10523000C272CD7A8C05720B87064777DD64ED5913
:10524000E05EF4735311752AE8339D2912109171B1
:105250001D59154E55520D63CF7AAE128124F92B8C
:10526000D526D0165701F66EA767316DEC7AA207E6
:10527000E50AFA0155719063FB617E6F3208A52142
:10528000FD3036303C1FAC042B6AB25714523E5AE4
:105290007E6DF606D81FEA2FE130B2214A08096F69
:1052A0005360D76169708D02D60D8D0C02012B738E
:1052B0002D6C7C71200290176B28762DE6247911D5
:1052C00010795A6222538650A95C12750C13692C0E
:1052D00025376A2ED3156578C2624D5D5568B47B5B
:1052E000B60C9613470E3402D877B275717D210B38
:1052F0000E198221BC205E16BC03E46C2858BC4CFD
:10530000F450106695062827273BF23A23277B089E
:10531000F56B435D3160BA6FB302520F3311FD0A72
:10532000E301987B507BD100000A6C13EE19E01961
:10533000FD0F437DF3661C55D850015F757C711FCE
:10534000713AF4416E339815A674925D50574C60D3
:105350004E71A001970B310E430B8005D97F427D22
:105360009A7FFF06F4107A18EF170D0CE87690601C
:10537000A9532D58496F2B114830A83F9B38DA1E8E
:10538000A27D7961025307542761A8732605D411C1
:10539000D116D7139A0BF501D87B167DAF05A11056
:1053A000721681115900846800556F50635FEE7C5E
:1053B000F11C3332EC3422258609D16C5258B85096
:1053C000BF562F67817C4C117A1F5522F9199F0A0D
:1053D000437B35733B76D801240EAD114E077072B6
:1053E000355DDA52ED59DC70D10E3F28C533A32D5F
:1053F0006919CD7EC9655B558E51225B406F93075D
:105400007F1CAB261D220A11117BB06AD66704727D
:105410006601F60B660AB27C0F6AC25CAD5CB26BC9
:10542000A704E31D8A2E43317E25000FF173D95B5B
:10543000784D5F4DD75C8C772D14EB27B52A201C57
:105440001B04396E1964D8685F77D905BB0B080651
:105450007578056B6D654C6B387B710F43204E285A
:105460000F251616167E9362D74B9142C14B0A66E2
:1054700034080B25A431F92958137379B1670764EF
:10548000716D5F7C8107A309970277776C6F536E0C
:105490000675DE01ED10C51DBE23941EE20CF871E9
:1054A0008956BE45B7470F5E4C01C923D038CC386A
:1054B00081252A09E36FB262E263976E1C7B450384
:1054C0008E0456002C7A3F75E97327788302E11029
:1054D000CF1D6E2290193B03B366A04F98489E568D
:1054E000E9752F1AFE34743C052F66142C78D763A7
:1054F0009F5C5661896C3D797703C10860081C0385
:10550000477C79789E7B760624155020FC1F681016
:105510004D75E05849486C4C56647E061A25943403
:10552000BB30441DDE02006B285C9B58C15FA16E3E
:105530002B00C60EBA1518134F092F7E9578F57CEF
:10554000240AFC18A01F0917E97F1663394D1F496B
:105550002B59A7766016DE2C6033E8290D15EE7BFB
:10556000DF65A958A457CB626C769C0B7A1A791D1B
:10557000CF13300330759171867AA10A0C17751616
:10558000E506846E5A58FE4E34575C6E0D0C2C2680
:10559000CE345634EB25EA0DF8729E5C5151F2542C
:1055A000AE6656008D177322491DEE0B5E786E6D48
:1055B0001770547D330CF012120DB07C5D69FB5CEA
:1055C000555DB96A4801F719142DC9349E2E681B20
:1055D0002D7F8C614B4CAF47A15674731F1242262E
:1055E0009728BB1AA1059474B26F6977DE04400F47
:1055F000A010F907A8795E6C0666F169F576710965
:10560000C91C312B442FEB24690CA96CDC50684475
:10561000544D8C68580BB327CA32C82A4C168C00DC
:105620006E732972E2790904AD09E0072400077658
:10563000856DD069726D6479CC0BD41F462D812C99
:10564000F81AD97CF55CB5483049A25E8E001F215E
:10565000E333AC338C23960CD0783F6E816D487366
:10566000D17A79006F02D37F56799C711B6D0471DA
:10567000707FBE144E2846309426500C456A294E41
:105680006C443651AB6E4A1016294731A8284D1587
:10569000A27F976EB4658D65826C9677ED02AD0939
:1056A0008D08B0006D77C4735D7AF20AA01FB02D2B
:1056B000922BF01621766C560A454F48245E987D51
:1056C000871A9D2B912D4222060FC8791468F45E2B
:1056D0003561BA6D207F020E4414600F6F020676AA
:1056E000FF72087D0E109921C8264A1ADE7F1162CA
:1056F0001C4DFA49F258927369115C293B35EA3224
:105700009623E00BB472CF5F5659B7614A751B0BF5
:105710002B191C19590C137B01709C728501CF1336
:10572000D91E291B2409C570C95B625248580C6BED
:105730000F053D1F1B326A38B82F9519F77B2C6077
:105740008C500553276611015017781FAC17DD06E2
:105750003478FA73127C840BC618191C90133A0221
:10576000036F2461295DE264C3763C0E3225513417
:10577000CE341F24D505EA63D44B53473B57D67329
:10578000751049217121B21463043E7AC47A55031D
:10579000E50D2D141D122908B279476B7B61D15F8D
:1057A0009668887BE414872CF2370E30C21540725D
:1057B00074530846024F8B6979098A21292A71237B
:1057C000E5137B04777B5D7AC87E88048207DE055B
:1057D000A47F76759B69AF60E0603C6EEE06FF22A9
:1057E000A236BE37D123A001995EFD48CA483E5C6F
:1057F000DC796F158025DF26B41C620D0B7F5A758E
:1058000091719B73AF79C0001105E402E579256EB3
:105810001067506CB07F021BFD32B03BD42E1B10C2
:10582000316B5C4E7B448A4F4C6801049019B8235D
:10583000E0219E160006597557696465306BF07754
:105840001305430B770688797A6C6E68B372430947
:10585000962294315C2DED157B74A056CC461249EE
:10586000065B5D75B00F8B237B2C5728021916033E
:10587000906D336172625A6F3001260E210F9C03C6
:105880008A72C966A868487902119C234D27741949
:10589000B87FA4648351F74B05556269E403E21DA8
:1058A0001A30F234242A92125A76136054585661F0
:1058B0004875000920129A0C3D7D736EE5698C7362
:1058C000CE06C61938239B1EDB0D46774C62365533
:1058D000EB53485F6A751D110B2AC2370534211E30
:1058E000927D2D5F154F9F5242660D7F44105B13D2
:1058F000570A4D7D6E75B077C70242111B1C0A1EF8
:105900000C163306BD7208614F564457F465E97FA3
:10591000E11D9234AE397F2944093D662A4F504C2F
:10592000705C1D76240DC2185317E10D7B032D7E8C
:10593000E67F4106820DCB118310C108167BE26918
:10594000065A77523359AF6F27106C2E433D7E3580
:10595000011A2E76D658274D3C55DA6A83036A150C
:10596000211C9C18380F50050A7EDB7A2D7CCC0058
:10597000820675090B05EB770E66EC57C3563F6739
:10598000E6052F27DF3C3F3D9C27DA041363934E47
:10599000C04CE55A25718406671409198915DF0B77
:1059A000757F4E747A6E1771067B52063A0BEB04C4
:1059B000AC7471623D598C6078782718A931C2396E
:1059C000802C040F076DD05201488D4DFD5EB175DE
:1059D000450BB01AA920861B050D217BAC6DA66A6C
:1059E000F9726001A40C060DB500836D6E5E0B5D4F
:1059F000356C78065B20E92D3E29B1140F78645D83
:105A00009F4C41493E53AA67CD01931A662A0B2C3D
:105A10006B1E62073C712F65F0673A765C06360EA6
:105A20004F08B7778E66A25F0568C17C17156B2695
:105A3000102A8A1FAE0A07728A5CF94F4C50C05E6A
:105A40007A781616AF2D5E36422C13136275ED5F11
:105A5000FE5A076694783B07170A1A017373B06AF7
:105A6000F56C3E7A1B0D201E5027A8253919CB0452
:105A7000636D54599F4F5C55A56AC609C827A9385C
:105A8000E634ED1D027EB962E956285DE86E6E01CE
:105A9000F50BCF0B73049E7CA079287D5C06D51195
:105AA0003A1B4A1F8F1BA10E9A79B861674F124BA0
:105AB00091591F786D1B6435973BA42B8F0D3F6F59
:105AC000A85C165B8D67B27905097010BA0F260ABB
:105AD00001044500FE7FBE03C90A9412F916111392
:105AE0008604986D5356354A6C51226CF310E5309C
:105AF000853FC9374D1E0B7FD665365ADA5D716B0F
:105B00009E7B16098A1087111A0D2C05587D36794F
:105B1000C77B35059F105216F10FDD7C54647D5212
:105B2000D95145652D068527D63BB93BC4282F0B97
:105B3000406EC65A4154275A6D68057A7F0A9615F9
:105B40001A183D115204B7780B75C07B9B09AB1531
:105B5000E616E409F772495D7E54655EFC77C0166F
:105B60007C2E04366A2B17144F786560DB51494F41
:105B70002E59186D7605861A00253D21EB115E7FA2
:105B80001D735473E07E560D7014360E0E7C8766BE
:105B90001559485B226D5907651FF12C572CC31E00
:105BA0009708BC6F7A5AE44E8451DC624E7E5C1AD0
