:020000040000FA
:100000000E01130EB26F140EB36F0F0EF56F100EBC
:10001000F66F0F01876AFF0E896E1C6B180E186F42
:10002000116BA3EC01F0A7EC01F0A7EC01F0A7EC39
:1000300001F0A7EC01F06AEC01F0A7EC01F0A7ECED
:1000400001F0A7EC01F0A7EC01F0959AA7EC01F004
:10005000A7EC01F0A7EC01F0A7EC01F05DEC01F0DA
:1000600036EC00F036EC00F034EF00F0A7EC01F0D5
:10007000A7EC01F0A7EC01F0A7EC01F0968052ECA0
:1000800001F0A7EC01F0A7EC01F0A7EC01F0A7EC60
:1000900001F07C0E62EC01F052EC01F0A7EC01F0F3
:1000A000A7EC01F0A7EC01F0A7EC01F0800E62ECE8
:1000B00001F052EC01F0A7EC01F0A7EC01F0A7EC85
:1000C00001F0A7EC01F03C0E62EC01F052EC01F003
:1000D000A7EC01F0A7EC01F0A7EC01F0A7EC01F010
:1000E000800E62EC01F052EC01F0A7EC01F0A7ECFD
:1000F00001F0A7EC01F0A7EC01F00E0E62EC01F0AC
:1001000052EC01F0A7EC01F0A7EC01F0A7EC01F034
:10011000A7EC01F0800E62EC01F052EC01F0A7ECCC
:1001200001F0A7EC01F0A7EC01F0A7EC01F0010E43
:1001300062EC01F052EC01F0A7EC01F0A7EC01F049
:10014000A7EC01F0A7EC01F0800E62EC01F052EC9C
:1001500001F0A7EC01F0A7EC01F0A7EC01F0A7EC8F
:1001600001F0060E62EC01F052EC01F0A7EC01F098
:10017000A7EC01F0A7EC01F0A7EC01F0800E62EC17
:1001800001F052EC01F0A7EC01F0A7EC01F0A7ECB4
:1001900001F0A7EC01F0010E62EC01F052EC01F06D
:1001A0004DEC01F0A7EC01F0A7EC01F0A7EC01F099
:1001B000A7EC01F0800E62EC01F052EC01F0A7EC2C
:1001C00001F0A7EC01F0A7EC01F0A7EC01F0020EA2
:1001D00062EC01F052EC01F0A7EC01F0A7EC01F0A9
:1001E000A7EC01F0A7EC01F0400E62EC01F052EC3C
:1001F00001F0480E62EC01F052EC01F04DEC01F020
:10020000650E62EC01F052EC01F04DEC01F06C0E69
:1002100062EC01F052EC01F04DEC01F06C0E62EC7E
:1002200001F052EC01F04DEC01F06F0E62EC01F0C8
:1002300052EC01F04DEC01F0200E62EC01F052ECBA
:1002400001F04DEC01F0770E62EC01F052EC01F0A0
:100250004DEC01F06F0E62EC01F052EC01F04DEC50
:1002600001F0720E62EC01F052EC01F06C0E62ECE7
:1002700001F052EC01F0640E62EC01F052EC01F07E
:10028000210E62EC01F052EC01F0968452EC01F088
:100290004DEC01F0A7EC01F01200006A002E4EEFC9
:1002A00001F0120096501F0BD8A4FCD794B4FAD7D3
:1002B000120094A059EF01F01200280E956EFF0E67
:1002C000926E1200916E95AE000C959EFF0C96BC3E
:1002D000FF0C000C8388838684888486889888969F
:1002E000899889969EEC01F0839884989EEC01F0A1
:1002F000839684969EEC01F09EEC01F083888488BE
:10030000090E9EEC01F0838684869EEC01F08396B4
:100310008496E82EF6D79EEC01F09EEC01F08398CF
:1003200084989EEC01F0838684869EEC01F083889D
:100330008888888684888988898612000000000061
:100340000000000012008C6A821E8C6A1200ABEC66
:1003500001F0ABEC01F0016AFF0E026E012EAEEF70
:0A03600001F0022EAEEF01F01200D2
:02036A00000091
:020000040030CA
:010000008C73
:01000100FFFF
:01000200FEFF
:01000300F705
:010004009F5C
:01000500FFFB
:01000600FFFA
:01000700FFF9
:00000001FF
