:020000040000FA
:0800000006EC00F03CEF00F0FB
:080008002CEF00F00E01170EB1
:10001000B06F0E01090EF86F0F011C6B0F01898E76
:10002000899C0F01220E9A6E9B6A0F019E6A9E8622
:100030000F0198500F019C8E9C880F019D9C9D8AFA
:100040009D989D94006A0E01B89B0E01C08B0F0114
:10005000F29AF28CF28E12000E01C8AB10000F0162
:100060009850C89B0C0E0F01996E002A070E0014C1
:1000700030120F01996E10000E01C8AB3DEF00F079
:100080000F0198500F019DA243EF00F0010A0F01EC
:06009000996E3CEF00F048
:02009600000068
:020000040030CA
:010000008C73
:01000100FFFF
:01000200FEFF
:01000300F705
:010004009F5C
:01000500FFFB
:01000600FFFA
:01000700FFF9
:00000001FF
