:020000040000FA
:040000001AEF01F002
:020004000000FA
:040008004BEF01F0C9
:080018004BEF01F096501F0BA5
:10002000D8A4FCD794B4FAD7120094A015EF00F02E
:100030001200280E956EFF0E926E1200916E95AE14
:10004000000C959EFF0C96BCFF0C000C92511F0BF0
:10005000D8A4FCD790B5FAD7120090A12DEF00F0EC
:100060001200280E916FFF0E8E6F12008D6F91AFF0
:10007000000C919FFF0C92BDFF0C000C00010D6A5B
:100080000E6A0F6A120000010D2A01E012000E2A0A
:1000900001E012000F2A12008388838684888486F8
:1000A000889888968998899680EC00F0839884983F
:1000B00080EC00F08396849680EC00F080EC00F0F9
:1000C00083888488090E80EC00F08386848680EC27
:1000D00000F083968496E82EF6D780EC00F080EC52
:1000E00000F08398849880EC00F08386848680EC0E
:1000F00000F08388888888868488898889861200A9
:1001000000000000000000001200821E1200026ABF
:10011000D20E036E022E8AEF00F0032E8AEF00F05B
:1001200012003EEC00F0000E0464A9EF00F004623F
:10013000AEEF00F0550E826EE1EC00F0430E996ECA
:100140009DA2A0EF00F03EEC00F0000E0464B3EFBF
:1001500000F043EC00F032E094EF00F043EC00F0EC
:100160002DE097EF00F043EC00F028E0A6EF00F060
:1001700001EE00F0EFCFE8FF0862D9EF00F0F4ECF9
:1001800000F0000EEDEC00F00B62CEEF00F04E0E32
:10019000996E9DA2C9EF00F0DEEF00F0030E0A6237
:1001A000DEEF00F0580E996E9DA2D4EF00F0DEEF66
:1001B00000F0520E996E9DA2DBEF00F0FF0E826EF2
:1001C0001200FF0E096E01EE00F0000EEE24092C65
:1001D000E6EF00F0E8CF08F01200000E0B2A0B62E9
:1001E000F3EF00F00A2A120096800EEC00F0FF0EEA
:1001F000096E01EE00F0D8900A360AC0E8FFA009A7
:100200001EEC00F00EEC00F00BC0E8FF1EEC00F05E
:100210000EEC00F0000E1EEC00F00EEC00F0E8CF4B
:10022000EEFF1EEC00F00EEC00F0092C0FEF01F0D9
:10023000968412000F01876A000000000E01130E61
:10024000B26F140EB36F0F0EF56F100EF66F170E20
:10025000B06F090EF86F0E01170EB06F090EF86F30
:100260000F01896A898E899C1C6B220E9A6E9B6A8B
:100270009E6A9E8698509C8E9C889D9C9D8A9D9887
:100280009D940E01B89BC08B0F01F29AF28CF28EF6
:10029000826849EF01F00E01C8AB50EF01F0100089
:0402A00098CF82FF72
:020000040030CA
:010000008C73
:01000100FFFF
:01000200FEFF
:01000300F705
:010004009F5C
:01000500FFFB
:01000600FFFA
:01000700FFF9
:00000001FF
