:020000040000FA
:100000000E01130EB26F140EB36F0F0EF56F100EBC
:10001000F66F0F01876A8C6AFF0E896E1C6B180ED3
:10002000186F116B47EC01F0959A82EC01F082ECAD
:1000300001F022EC01F0968017EC01F0968417ECA9
:1000400001F0968017EC01F082EC01F082EC01F0F7
:10005000980E27EC01F017EC01F0100E27EC01F0E0
:1000600017EC01F0800E27EC01F017EC01F0FF0E09
:1000700027EC01F017EC01F015EF01F080EC01F036
:10008000A00E27EC01F017EC01F0000E27EC01F0B8
:1000900017EC01F0000E27EC01F017EC01F0550E03
:1000A00027EC01F017EC01F0000E27EC01F017EC43
:1000B00001F0550E27EC01F017EC01F0FF0E27ECD4
:1000C00001F017EC01F0550E27EC01F017EC01F0F0
:1000D000550E27EC01F017EC01F0550E27EC01F05E
:1000E00017EC01F0550E27EC01F017EC01F09684A7
:1000F00017EC01F021EF00F0968017EC01F080EC96
:1001000001F0A00E27EC01F017EC01F0000E27EC37
:1001100001F017EC01F0000E27EC01F017EC01F0F4
:1001200080EC01F0968017EC01F0A10E27EC01F0B5
:1001300017EC01F096861EEC01F01EEC01F09150D8
:10014000969A968896B8A2EF00F096861EEC01F07B
:100150001EEC01F09150969A968896B8ADEF00F09B
:1001600096861EEC01F01EEC01F09150969A96884E
:1001700096B8B8EF00F096861EEC01F01EEC01F088
:100180009150969A968896B8C3EF00F096861EEC2A
:1001900001F01EEC01F09150969A968896B8CEEF39
:1001A00000F096861EEC01F01EEC01F09150969A3C
:1001B000968896B8D9EF00F096861EEC01F01EECFA
:1001C00001F09150969A968896B8E4EF00F09686E2
:1001D0001EEC01F01EEC01F09150968A968896B8BC
:1001E000EFEF00F0968417EC01F082EC01F082EC66
:1001F00001F082EC01F021EF00F0968017EC01F0A5
:10020000980E27EC01F017EC01F0100E27EC01F02E
:1002100017EC01F000C0E8FF27EC01F017EC01F04B
:10022000000E27EC01F017EC01F015EF01F09650ED
:100230001F0BD8A4FCD794B4FAD7120094A01EEFD9
:1002400001F01200280E956EFF0E926E1200916E54
:1002500095AE000C959EFF0C96BCFF0C000C9251C5
:100260001F0BD8A4FCD790B5FAD7120090A136EF97
:1002700001F01200280E916FFF0E8E6F12008D6F2D
:1002800091AF000C919FFF0C92BDFF0C000C838876
:1002900083868488848688988896899889967BEC5A
:1002A00001F0839884987BEC01F0839684967BEC34
:1002B00001F07BEC01F083888488090E7BEC01F06F
:1002C000838684867BEC01F083968496E82EF6D7AD
:1002D0007BEC01F07BEC01F0839884987BEC01F0DF
:1002E000838684867BEC01F083888888888684886E
:1002F00089888986120000000000000000001200BA
:10030000821E1200026AD20E036E022E85EF01F0E9
:08031000032E85EF01F012003D
:020318000000E3
:020000040030CA
:010000008C73
:01000100FFFF
:01000200FEFF
:01000300F705
:010004009F5C
:01000500FFFB
:01000600FFFA
:01000700FFF9
:00000001FF
